{
  "_format": "hh-sol-artifact-1",
  "contractName": "Invaded",
  "sourceName": "contracts/invaded/invaded.sol",
  "abi": [
    {
      "inputs": [],
      "stateMutability": "nonpayable",
      "type": "constructor"
    },
    {
      "anonymous": false,
      "inputs": [
        {
          "indexed": true,
          "internalType": "address",
          "name": "account",
          "type": "address"
        },
        {
          "indexed": true,
          "internalType": "address",
          "name": "sender",
          "type": "address"
        }
      ],
      "name": "AdminApproved",
      "type": "event"
    },
    {
      "anonymous": false,
      "inputs": [
        {
          "indexed": true,
          "internalType": "address",
          "name": "account",
          "type": "address"
        },
        {
          "indexed": true,
          "internalType": "address",
          "name": "sender",
          "type": "address"
        }
      ],
      "name": "AdminRevoked",
      "type": "event"
    },
    {
      "anonymous": false,
      "inputs": [
        {
          "indexed": true,
          "internalType": "address",
          "name": "owner",
          "type": "address"
        },
        {
          "indexed": true,
          "internalType": "address",
          "name": "approved",
          "type": "address"
        },
        {
          "indexed": true,
          "internalType": "uint256",
          "name": "tokenId",
          "type": "uint256"
        }
      ],
      "name": "Approval",
      "type": "event"
    },
    {
      "anonymous": false,
      "inputs": [
        {
          "indexed": true,
          "internalType": "address",
          "name": "owner",
          "type": "address"
        },
        {
          "indexed": true,
          "internalType": "address",
          "name": "operator",
          "type": "address"
        },
        {
          "indexed": false,
          "internalType": "bool",
          "name": "approved",
          "type": "bool"
        }
      ],
      "name": "ApprovalForAll",
      "type": "event"
    },
    {
      "anonymous": false,
      "inputs": [
        {
          "indexed": true,
          "internalType": "address",
          "name": "previousOwner",
          "type": "address"
        },
        {
          "indexed": true,
          "internalType": "address",
          "name": "newOwner",
          "type": "address"
        }
      ],
      "name": "OwnershipTransferred",
      "type": "event"
    },
    {
      "anonymous": false,
      "inputs": [
        {
          "indexed": true,
          "internalType": "address",
          "name": "from",
          "type": "address"
        },
        {
          "indexed": true,
          "internalType": "address",
          "name": "to",
          "type": "address"
        },
        {
          "indexed": true,
          "internalType": "uint256",
          "name": "tokenId",
          "type": "uint256"
        }
      ],
      "name": "Transfer",
      "type": "event"
    },
    {
      "inputs": [],
      "name": "_UKRAINE_ADDRESS",
      "outputs": [
        {
          "internalType": "address",
          "name": "",
          "type": "address"
        }
      ],
      "stateMutability": "view",
      "type": "function"
    },
    {
      "inputs": [
        {
          "internalType": "address",
          "name": "reservedAddress",
          "type": "address"
        }
      ],
      "name": "activateReserved",
      "outputs": [],
      "stateMutability": "nonpayable",
      "type": "function"
    },
    {
      "inputs": [
        {
          "internalType": "address",
          "name": "to",
          "type": "address"
        },
        {
          "internalType": "uint256",
          "name": "tokenId",
          "type": "uint256"
        }
      ],
      "name": "approve",
      "outputs": [],
      "stateMutability": "nonpayable",
      "type": "function"
    },
    {
      "inputs": [
        {
          "internalType": "address",
          "name": "admin",
          "type": "address"
        }
      ],
      "name": "approveAdmin",
      "outputs": [],
      "stateMutability": "nonpayable",
      "type": "function"
    },
    {
      "inputs": [
        {
          "internalType": "address",
          "name": "owner",
          "type": "address"
        }
      ],
      "name": "balanceOf",
      "outputs": [
        {
          "internalType": "uint256",
          "name": "",
          "type": "uint256"
        }
      ],
      "stateMutability": "view",
      "type": "function"
    },
    {
      "inputs": [
        {
          "internalType": "uint256",
          "name": "messageEndTime",
          "type": "uint256"
        }
      ],
      "name": "deactivate",
      "outputs": [],
      "stateMutability": "nonpayable",
      "type": "function"
    },
    {
      "inputs": [],
      "name": "getAdmins",
      "outputs": [
        {
          "internalType": "address[]",
          "name": "admins",
          "type": "address[]"
        }
      ],
      "stateMutability": "view",
      "type": "function"
    },
    {
      "inputs": [
        {
          "internalType": "uint256",
          "name": "tokenId",
          "type": "uint256"
        }
      ],
      "name": "getApproved",
      "outputs": [
        {
          "internalType": "address",
          "name": "",
          "type": "address"
        }
      ],
      "stateMutability": "view",
      "type": "function"
    },
    {
      "inputs": [],
      "name": "getCommunities",
      "outputs": [
        {
          "internalType": "address[]",
          "name": "",
          "type": "address[]"
        }
      ],
      "stateMutability": "view",
      "type": "function"
    },
    {
      "inputs": [
        {
          "internalType": "uint256",
          "name": "",
          "type": "uint256"
        }
      ],
      "name": "getFeeBps",
      "outputs": [
        {
          "internalType": "uint256[]",
          "name": "bps",
          "type": "uint256[]"
        }
      ],
      "stateMutability": "view",
      "type": "function"
    },
    {
      "inputs": [
        {
          "internalType": "uint256",
          "name": "",
          "type": "uint256"
        }
      ],
      "name": "getFeeRecipients",
      "outputs": [
        {
          "internalType": "address payable[]",
          "name": "recipients",
          "type": "address[]"
        }
      ],
      "stateMutability": "view",
      "type": "function"
    },
    {
      "inputs": [
        {
          "internalType": "uint256",
          "name": "",
          "type": "uint256"
        }
      ],
      "name": "getRoyalties",
      "outputs": [
        {
          "internalType": "address payable[]",
          "name": "recipients",
          "type": "address[]"
        },
        {
          "internalType": "uint256[]",
          "name": "bps",
          "type": "uint256[]"
        }
      ],
      "stateMutability": "view",
      "type": "function"
    },
    {
      "inputs": [],
      "name": "getYourTokenId",
      "outputs": [
        {
          "internalType": "uint256",
          "name": "",
          "type": "uint256"
        }
      ],
      "stateMutability": "view",
      "type": "function"
    },
    {
      "inputs": [
        {
          "internalType": "address",
          "name": "admin",
          "type": "address"
        }
      ],
      "name": "isAdmin",
      "outputs": [
        {
          "internalType": "bool",
          "name": "",
          "type": "bool"
        }
      ],
      "stateMutability": "view",
      "type": "function"
    },
    {
      "inputs": [
        {
          "internalType": "address",
          "name": "owner",
          "type": "address"
        },
        {
          "internalType": "address",
          "name": "operator",
          "type": "address"
        }
      ],
      "name": "isApprovedForAll",
      "outputs": [
        {
          "internalType": "bool",
          "name": "",
          "type": "bool"
        }
      ],
      "stateMutability": "view",
      "type": "function"
    },
    {
      "inputs": [
        {
          "internalType": "string",
          "name": "message_",
          "type": "string"
        },
        {
          "internalType": "bool",
          "name": "support_",
          "type": "bool"
        }
      ],
      "name": "message",
      "outputs": [],
      "stateMutability": "payable",
      "type": "function"
    },
    {
      "inputs": [],
      "name": "name",
      "outputs": [
        {
          "internalType": "string",
          "name": "",
          "type": "string"
        }
      ],
      "stateMutability": "view",
      "type": "function"
    },
    {
      "inputs": [],
      "name": "owner",
      "outputs": [
        {
          "internalType": "address",
          "name": "",
          "type": "address"
        }
      ],
      "stateMutability": "view",
      "type": "function"
    },
    {
      "inputs": [
        {
          "internalType": "uint256",
          "name": "tokenId",
          "type": "uint256"
        }
      ],
      "name": "ownerOf",
      "outputs": [
        {
          "internalType": "address",
          "name": "",
          "type": "address"
        }
      ],
      "stateMutability": "view",
      "type": "function"
    },
    {
      "inputs": [],
      "name": "renounceOwnership",
      "outputs": [],
      "stateMutability": "nonpayable",
      "type": "function"
    },
    {
      "inputs": [
        {
          "internalType": "address",
          "name": "admin",
          "type": "address"
        }
      ],
      "name": "revokeAdmin",
      "outputs": [],
      "stateMutability": "nonpayable",
      "type": "function"
    },
    {
      "inputs": [
        {
          "internalType": "uint256",
          "name": "",
          "type": "uint256"
        },
        {
          "internalType": "uint256",
          "name": "value",
          "type": "uint256"
        }
      ],
      "name": "royaltyInfo",
      "outputs": [
        {
          "internalType": "address",
          "name": "",
          "type": "address"
        },
        {
          "internalType": "uint256",
          "name": "",
          "type": "uint256"
        }
      ],
      "stateMutability": "view",
      "type": "function"
    },
    {
      "inputs": [
        {
          "internalType": "address",
          "name": "from",
          "type": "address"
        },
        {
          "internalType": "address",
          "name": "to",
          "type": "address"
        },
        {
          "internalType": "uint256",
          "name": "tokenId",
          "type": "uint256"
        }
      ],
      "name": "safeTransferFrom",
      "outputs": [],
      "stateMutability": "nonpayable",
      "type": "function"
    },
    {
      "inputs": [
        {
          "internalType": "address",
          "name": "from",
          "type": "address"
        },
        {
          "internalType": "address",
          "name": "to",
          "type": "address"
        },
        {
          "internalType": "uint256",
          "name": "tokenId",
          "type": "uint256"
        },
        {
          "internalType": "bytes",
          "name": "_data",
          "type": "bytes"
        }
      ],
      "name": "safeTransferFrom",
      "outputs": [],
      "stateMutability": "nonpayable",
      "type": "function"
    },
    {
      "inputs": [
        {
          "internalType": "address",
          "name": "operator",
          "type": "address"
        },
        {
          "internalType": "bool",
          "name": "approved",
          "type": "bool"
        }
      ],
      "name": "setApprovalForAll",
      "outputs": [],
      "stateMutability": "nonpayable",
      "type": "function"
    },
    {
      "inputs": [
        {
          "internalType": "uint256[]",
          "name": "tokenIds",
          "type": "uint256[]"
        },
        {
          "internalType": "bool",
          "name": "freedom",
          "type": "bool"
        }
      ],
      "name": "setFreedom",
      "outputs": [],
      "stateMutability": "nonpayable",
      "type": "function"
    },
    {
      "inputs": [
        {
          "internalType": "bool",
          "name": "unique",
          "type": "bool"
        }
      ],
      "name": "setUniqueMessagesOnly",
      "outputs": [],
      "stateMutability": "nonpayable",
      "type": "function"
    },
    {
      "inputs": [
        {
          "internalType": "bytes4",
          "name": "interfaceId",
          "type": "bytes4"
        }
      ],
      "name": "supportsInterface",
      "outputs": [
        {
          "internalType": "bool",
          "name": "",
          "type": "bool"
        }
      ],
      "stateMutability": "view",
      "type": "function"
    },
    {
      "inputs": [],
      "name": "symbol",
      "outputs": [
        {
          "internalType": "string",
          "name": "",
          "type": "string"
        }
      ],
      "stateMutability": "view",
      "type": "function"
    },
    {
      "inputs": [
        {
          "internalType": "uint256",
          "name": "tokenId",
          "type": "uint256"
        }
      ],
      "name": "tokenURI",
      "outputs": [
        {
          "internalType": "string",
          "name": "",
          "type": "string"
        }
      ],
      "stateMutability": "view",
      "type": "function"
    },
    {
      "inputs": [
        {
          "internalType": "address",
          "name": "from",
          "type": "address"
        },
        {
          "internalType": "address",
          "name": "to",
          "type": "address"
        },
        {
          "internalType": "uint256",
          "name": "tokenId",
          "type": "uint256"
        }
      ],
      "name": "transferFrom",
      "outputs": [],
      "stateMutability": "nonpayable",
      "type": "function"
    },
    {
      "inputs": [
        {
          "internalType": "address",
          "name": "newOwner",
          "type": "address"
        }
      ],
      "name": "transferOwnership",
      "outputs": [],
      "stateMutability": "nonpayable",
      "type": "function"
    },
    {
      "inputs": [
        {
          "internalType": "address",
          "name": "communityAddress",
          "type": "address"
        },
        {
          "internalType": "string",
          "name": "tag_",
          "type": "string"
        }
      ],
      "name": "updateCommunity",
      "outputs": [],
      "stateMutability": "nonpayable",
      "type": "function"
    },
    {
      "inputs": [
        {
          "internalType": "address payable",
          "name": "recipient",
          "type": "address"
        },
        {
          "internalType": "uint256",
          "name": "bps",
          "type": "uint256"
        }
      ],
      "name": "updateRoyalties",
      "outputs": [],
      "stateMutability": "nonpayable",
      "type": "function"
    },
    {
      "inputs": [
        {
          "internalType": "uint256[]",
          "name": "tokenIds",
          "type": "uint256[]"
        },
        {
          "internalType": "address",
          "name": "invaderAddress",
          "type": "address"
        }
      ],
      "name": "updateTokenMetadata",
      "outputs": [],
      "stateMutability": "nonpayable",
      "type": "function"
    },
    {
      "inputs": [
        {
          "internalType": "string",
          "name": "message_",
          "type": "string"
        }
      ],
      "name": "validateMessage",
      "outputs": [
        {
          "internalType": "bool",
          "name": "",
          "type": "bool"
        }
      ],
      "stateMutability": "view",
      "type": "function"
    },
    {
      "inputs": [],
      "name": "withdrawAll",
      "outputs": [],
      "stateMutability": "nonpayable",
      "type": "function"
    }
  ],
  "bytecode": "0x60806040523480156200001157600080fd5b506040518060400160405280600781526020017f696e7661646564000000000000000000000000000000000000000000000000008152506040518060400160405280600981526020017f5d5d5d5d5d5d5d5d5d00000000000000000000000000000000000000000000008152506001600081905550620000a66200009a6200013b60201b60201c565b6200014360201b60201c565b8160049080519060200190620000be92919062000209565b508060059080519060200190620000d792919062000209565b50505033601660006101000a81548173ffffffffffffffffffffffffffffffffffffffff021916908373ffffffffffffffffffffffffffffffffffffffff160217905550600a60008154809291906200013090620002f9565b9190505550620003a5565b600033905090565b6000600160009054906101000a900473ffffffffffffffffffffffffffffffffffffffff16905081600160006101000a81548173ffffffffffffffffffffffffffffffffffffffff021916908373ffffffffffffffffffffffffffffffffffffffff1602179055508173ffffffffffffffffffffffffffffffffffffffff168173ffffffffffffffffffffffffffffffffffffffff167f8be0079c531659141344cd1fd0a4f28419497f9722a3daafe3b4186f6b6457e060405160405180910390a35050565b8280546200021790620002c3565b90600052602060002090601f0160209004810192826200023b576000855562000287565b82601f106200025657805160ff191683800117855562000287565b8280016001018555821562000287579182015b828111156200028657825182559160200191906001019062000269565b5b5090506200029691906200029a565b5090565b5b80821115620002b55760008160009055506001016200029b565b5090565b6000819050919050565b60006002820490506001821680620002dc57607f821691505b60208210811415620002f357620002f262000376565b5b50919050565b60006200030682620002b9565b91507fffffffffffffffffffffffffffffffffffffffffffffffffffffffffffffffff8214156200033c576200033b62000347565b5b600182019050919050565b7f4e487b7100000000000000000000000000000000000000000000000000000000600052601160045260246000fd5b7f4e487b7100000000000000000000000000000000000000000000000000000000600052602260045260246000fd5b615fae80620003b56000396000f3fe60806040526004361061021a5760003560e01c806370a0823111610123578063a49b0746116100ab578063c87b56dd1161006f578063c87b56dd146107e6578063d03dd2c714610823578063e985e9c51461084c578063f083f8ec14610889578063f2fde38b146108b25761021a565b8063a49b0746146106ec578063b88d4fde14610717578063b9c4d9fb14610740578063bb3bafd61461077d578063c251b565146107bb5761021a565b80638da5cb5b116100f25780638da5cb5b146106285780638f439f0614610653578063916b9bef1461066f57806395d89b4114610698578063a22cb465146106c35761021a565b806370a0823114610594578063715018a6146105d1578063853828b6146105e8578063866d6192146105ff5761021a565b806331ae450b116101a65780635cda7927116101755780635cda79271461049f5780636352211e146104dc57806363e80071146105195780636c2f5acd146105425780636d73e6691461056b5761021a565b806331ae450b146103f757806342842e0e14610422578063447b271c1461044b57806352d27dec146104745761021a565b80630ebd4c7f116101ed5780630ebd4c7f146102ed57806323b872dd1461032a57806324d7806c146103535780632a55205a146103905780632d345670146103ce5761021a565b806301ffc9a71461021f57806306fdde031461025c578063081812fc14610287578063095ea7b3146102c4575b600080fd5b34801561022b57600080fd5b50610246600480360381019061024191906147d4565b6108db565b60405161025391906150d1565b60405180910390f35b34801561026857600080fd5b506102716109ea565b60405161027e9190615107565b60405180910390f35b34801561029357600080fd5b506102ae60048036038101906102a991906148fc565b610a7c565b6040516102bb9190614fa4565b60405180910390f35b3480156102d057600080fd5b506102eb60048036038101906102e69190614696565b610b01565b005b3480156102f957600080fd5b50610314600480360381019061030f91906148fc565b610c19565b60405161032191906150af565b60405180910390f35b34801561033657600080fd5b50610351600480360381019061034c919061453c565b610d32565b005b34801561035f57600080fd5b5061037a6004803603810190610375919061449b565b610d92565b60405161038791906150d1565b60405180910390f35b34801561039c57600080fd5b506103b760048036038101906103b2919061494e565b610dec565b6040516103c592919061500b565b60405180910390f35b3480156103da57600080fd5b506103f560048036038101906103f0919061449b565b610e38565b005b34801561040357600080fd5b5061040c610f40565b6040516104199190615034565b60405180910390f35b34801561042e57600080fd5b506104496004803603810190610444919061453c565b61106e565b005b34801561045757600080fd5b50610472600480360381019061046d9190614642565b61108e565b005b34801561048057600080fd5b50610489611562565b6040516104969190614fa4565b60405180910390f35b3480156104ab57600080fd5b506104c660048036038101906104c19190614826565b61157a565b6040516104d391906150d1565b60405180910390f35b3480156104e857600080fd5b5061050360048036038101906104fe91906148fc565b6116c6565b6040516105109190614fa4565b60405180910390f35b34801561052557600080fd5b50610540600480360381019061053b919061472a565b611778565b005b34801561054e57600080fd5b50610569600480360381019061056491906144c4565b6118c5565b005b34801561057757600080fd5b50610592600480360381019061058d919061449b565b6119a1565b005b3480156105a057600080fd5b506105bb60048036038101906105b6919061449b565b611aa8565b6040516105c89190615409565b60405180910390f35b3480156105dd57600080fd5b506105e6611b60565b005b3480156105f457600080fd5b506105fd611be8565b005b34801561060b57600080fd5b5061062660048036038101906106219190614782565b611da0565b005b34801561063457600080fd5b5061063d611e4d565b60405161064a9190614fa4565b60405180910390f35b61066d600480360381019061066891906148a8565b611e77565b005b34801561067b57600080fd5b50610696600480360381019061069191906148fc565b612191565b005b3480156106a457600080fd5b506106ad61222b565b6040516106ba9190615107565b60405180910390f35b3480156106cf57600080fd5b506106ea60048036038101906106e59190614606565b6122bd565b005b3480156106f857600080fd5b506107016122d3565b60405161070e9190615409565b60405180910390f35b34801561072357600080fd5b5061073e6004803603810190610739919061458b565b61231a565b005b34801561074c57600080fd5b50610767600480360381019061076291906148fc565b61237c565b6040516107749190615056565b60405180910390f35b34801561078957600080fd5b506107a4600480360381019061079f91906148fc565b6124e3565b6040516107b2929190615078565b60405180910390f35b3480156107c757600080fd5b506107d0612706565b6040516107dd9190615034565b60405180910390f35b3480156107f257600080fd5b5061080d600480360381019061080891906148fc565b612794565b60405161081a9190615107565b60405180910390f35b34801561082f57600080fd5b5061084a600480360381019061084591906146d2565b612cc7565b005b34801561085857600080fd5b50610873600480360381019061086e9190614500565b612e62565b60405161088091906150d1565b60405180910390f35b34801561089557600080fd5b506108b060048036038101906108ab919061449b565b612ef6565b005b3480156108be57600080fd5b506108d960048036038101906108d4919061449b565b612fe4565b005b60006108e6826130dc565b806108f657506108f582613156565b5b80610945575063bb3bafd660e01b7bffffffffffffffffffffffffffffffffffffffffffffffffffffffff1916827bffffffffffffffffffffffffffffffffffffffffffffffffffffffff1916145b806109945750632a55205a60e01b7bffffffffffffffffffffffffffffffffffffffffffffffffffffffff1916827bffffffffffffffffffffffffffffffffffffffffffffffffffffffff1916145b806109e3575063b779958460e01b7bffffffffffffffffffffffffffffffffffffffffffffffffffffffff1916827bffffffffffffffffffffffffffffffffffffffffffffffffffffffff1916145b9050919050565b6060600480546109f9906157ec565b80601f0160208091040260200160405190810160405280929190818152602001828054610a25906157ec565b8015610a725780601f10610a4757610100808354040283529160200191610a72565b820191906000526020600020905b815481529060010190602001808311610a5557829003601f168201915b5050505050905090565b6000610a8782613238565b610ac6576040517f08c379a0000000000000000000000000000000000000000000000000000000008152600401610abd90615309565b60405180910390fd5b6008600083815260200190815260200160002060009054906101000a900473ffffffffffffffffffffffffffffffffffffffff169050919050565b6000610b0c826116c6565b90508073ffffffffffffffffffffffffffffffffffffffff168373ffffffffffffffffffffffffffffffffffffffff161415610b7d576040517f08c379a0000000000000000000000000000000000000000000000000000000008152600401610b7490615369565b60405180910390fd5b8073ffffffffffffffffffffffffffffffffffffffff16610b9c6132a4565b73ffffffffffffffffffffffffffffffffffffffff161480610bcb5750610bca81610bc56132a4565b612e62565b5b610c0a576040517f08c379a0000000000000000000000000000000000000000000000000000000008152600401610c0190615289565b60405180910390fd5b610c1483836132ac565b505050565b6060600073ffffffffffffffffffffffffffffffffffffffff16601a60009054906101000a900473ffffffffffffffffffffffffffffffffffffffff1673ffffffffffffffffffffffffffffffffffffffff1614610d2d57600167ffffffffffffffff811115610cb2577f4e487b7100000000000000000000000000000000000000000000000000000000600052604160045260246000fd5b604051908082528060200260200182016040528015610ce05781602001602082028036833780820191505090505b50905060195481600081518110610d20577f4e487b7100000000000000000000000000000000000000000000000000000000600052603260045260246000fd5b6020026020010181815250505b919050565b610d43610d3d6132a4565b82613365565b610d82576040517f08c379a0000000000000000000000000000000000000000000000000000000008152600401610d7990615389565b60405180910390fd5b610d8d838383613443565b505050565b60008173ffffffffffffffffffffffffffffffffffffffff16610db3611e4d565b73ffffffffffffffffffffffffffffffffffffffff161480610de55750610de48260026136aa90919063ffffffff16565b5b9050919050565b600080601a60009054906101000a900473ffffffffffffffffffffffffffffffffffffffff1661271060195485610e239190615696565b610e2d9190615665565b915091509250929050565b610e406132a4565b73ffffffffffffffffffffffffffffffffffffffff16610e5e611e4d565b73ffffffffffffffffffffffffffffffffffffffff1614610eb4576040517f08c379a0000000000000000000000000000000000000000000000000000000008152600401610eab90615329565b60405180910390fd5b610ec88160026136aa90919063ffffffff16565b15610f3d573373ffffffffffffffffffffffffffffffffffffffff168173ffffffffffffffffffffffffffffffffffffffff167f7c0c3c84c67c85fcac635147348bfe374c24a1a93d0366d1cfe9d8853cbf89d560405160405180910390a3610f3b8160026136da90919063ffffffff16565b505b50565b6060610f4c600261370a565b67ffffffffffffffff811115610f8b577f4e487b7100000000000000000000000000000000000000000000000000000000600052604160045260246000fd5b604051908082528060200260200182016040528015610fb95781602001602082028036833780820191505090505b50905060005b610fc9600261370a565b81101561106a57610fe481600261371f90919063ffffffff16565b82828151811061101d577f4e487b7100000000000000000000000000000000000000000000000000000000600052603260045260246000fd5b602002602001019073ffffffffffffffffffffffffffffffffffffffff16908173ffffffffffffffffffffffffffffffffffffffff168152505080806110629061584f565b915050610fbf565b5090565b6110898383836040518060200160405280600081525061231a565b505050565b3373ffffffffffffffffffffffffffffffffffffffff166110ad611e4d565b73ffffffffffffffffffffffffffffffffffffffff1614806110df57506110de3360026136aa90919063ffffffff16565b5b61111e576040517f08c379a0000000000000000000000000000000000000000000000000000000008152600401611115906153a9565b60405180910390fd5b8173ffffffffffffffffffffffffffffffffffffffff166301ffc9a77f80ac58cd000000000000000000000000000000000000000000000000000000006040518263ffffffff1660e01b815260040161117791906150ec565b60206040518083038186803b15801561118f57600080fd5b505afa1580156111a3573d6000803e3d6000fd5b505050506040513d601f19601f820116820180604052508101906111c791906147ab565b611206576040517f08c379a00000000000000000000000000000000000000000000000000000000081526004016111fd90615149565b60405180910390fd5b600080601060008573ffffffffffffffffffffffffffffffffffffffff1673ffffffffffffffffffffffffffffffffffffffff1681526020019081526020016000208054611253906157ec565b905014905081601060008573ffffffffffffffffffffffffffffffffffffffff1673ffffffffffffffffffffffffffffffffffffffff16815260200190815260200160002090805190602001906112ab9291906141ce565b50801561132a576000825114156112c2575061155e565b6011839080600181540180825580915050600190039060005260206000200160009091909190916101000a81548173ffffffffffffffffffffffffffffffffffffffff021916908373ffffffffffffffffffffffffffffffffffffffff16021790555061155c565b60008251141561155b5760005b601180549050811015611559576011818154811061137e577f4e487b7100000000000000000000000000000000000000000000000000000000600052603260045260246000fd5b9060005260206000200160009054906101000a900473ffffffffffffffffffffffffffffffffffffffff1673ffffffffffffffffffffffffffffffffffffffff168473ffffffffffffffffffffffffffffffffffffffff16141561154657601160016011805490506113f091906156f0565b81548110611427577f4e487b7100000000000000000000000000000000000000000000000000000000600052603260045260246000fd5b9060005260206000200160009054906101000a900473ffffffffffffffffffffffffffffffffffffffff166011828154811061148c577f4e487b7100000000000000000000000000000000000000000000000000000000600052603260045260246000fd5b9060005260206000200160006101000a81548173ffffffffffffffffffffffffffffffffffffffff021916908373ffffffffffffffffffffffffffffffffffffffff160217905550601180548061150c577f4e487b7100000000000000000000000000000000000000000000000000000000600052603160045260246000fd5b6001900381819060005260206000200160006101000a81549073ffffffffffffffffffffffffffffffffffffffff02191690559055611559565b80806115519061584f565b915050611337565b505b5b505b5050565b73165cd37b4c644c2921454429e7f9358d18a45e1481565b6000601460019054906101000a900460ff1615806115d55750601460019054906101000a900460ff1680156115d45750600e60008380519060200120815260200190815260200160002060009054906101000a900460ff16155b5b611614576040517f08c379a000000000000000000000000000000000000000000000000000000000815260040161160b90615249565b60405180910390fd5b601460029054906101000a900473ffffffffffffffffffffffffffffffffffffffff1673ffffffffffffffffffffffffffffffffffffffff16635cda7927836040518263ffffffff1660e01b815260040161166f9190615107565b60206040518083038186803b15801561168757600080fd5b505afa15801561169b573d6000803e3d6000fd5b505050506040513d601f19601f820116820180604052508101906116bf91906147ab565b9050919050565b6000806006600084815260200190815260200160002060009054906101000a900473ffffffffffffffffffffffffffffffffffffffff169050600073ffffffffffffffffffffffffffffffffffffffff168173ffffffffffffffffffffffffffffffffffffffff16141561176f576040517f08c379a0000000000000000000000000000000000000000000000000000000008152600401611766906152c9565b60405180910390fd5b80915050919050565b3373ffffffffffffffffffffffffffffffffffffffff16611797611e4d565b73ffffffffffffffffffffffffffffffffffffffff1614806117c957506117c83360026136aa90919063ffffffff16565b5b611808576040517f08c379a00000000000000000000000000000000000000000000000000000000081526004016117ff906153a9565b60405180910390fd5b60008383905014156118335780601460006101000a81548160ff0219169083151502179055506118c0565b60005b838390508110156118be57816017600086868581811061187f577f4e487b7100000000000000000000000000000000000000000000000000000000600052603260045260246000fd5b90506020020135815260200190815260200160002060006101000a81548160ff02191690831515021790555080806118b69061584f565b915050611836565b505b505050565b3373ffffffffffffffffffffffffffffffffffffffff166118e4611e4d565b73ffffffffffffffffffffffffffffffffffffffff16148061191657506119153360026136aa90919063ffffffff16565b5b611955576040517f08c379a000000000000000000000000000000000000000000000000000000000815260040161194c906153a9565b60405180910390fd5b81601a60006101000a81548173ffffffffffffffffffffffffffffffffffffffff021916908373ffffffffffffffffffffffffffffffffffffffff160217905550806019819055505050565b6119a96132a4565b73ffffffffffffffffffffffffffffffffffffffff166119c7611e4d565b73ffffffffffffffffffffffffffffffffffffffff1614611a1d576040517f08c379a0000000000000000000000000000000000000000000000000000000008152600401611a1490615329565b60405180910390fd5b611a318160026136aa90919063ffffffff16565b611aa5573373ffffffffffffffffffffffffffffffffffffffff168173ffffffffffffffffffffffffffffffffffffffff167f7e1a1a08d52e4ba0e21554733d66165fd5151f99460116223d9e3a608eec5cb160405160405180910390a3611aa381600261373990919063ffffffff16565b505b50565b60008073ffffffffffffffffffffffffffffffffffffffff168273ffffffffffffffffffffffffffffffffffffffff161415611b19576040517f08c379a0000000000000000000000000000000000000000000000000000000008152600401611b10906152a9565b60405180910390fd5b600760008373ffffffffffffffffffffffffffffffffffffffff1673ffffffffffffffffffffffffffffffffffffffff168152602001908152602001600020549050919050565b611b686132a4565b73ffffffffffffffffffffffffffffffffffffffff16611b86611e4d565b73ffffffffffffffffffffffffffffffffffffffff1614611bdc576040517f08c379a0000000000000000000000000000000000000000000000000000000008152600401611bd390615329565b60405180910390fd5b611be66000613769565b565b3373ffffffffffffffffffffffffffffffffffffffff16611c07611e4d565b73ffffffffffffffffffffffffffffffffffffffff161480611c395750611c383360026136aa90919063ffffffff16565b5b611c78576040517f08c379a0000000000000000000000000000000000000000000000000000000008152600401611c6f906153a9565b60405180910390fd5b6000601660009054906101000a900473ffffffffffffffffffffffffffffffffffffffff1673ffffffffffffffffffffffffffffffffffffffff16601254604051611cc290614f8f565b60006040518083038185875af1925050503d8060008114611cff576040519150601f19603f3d011682016040523d82523d6000602084013e611d04565b606091505b5050905080611d1257600080fd5b600073165cd37b4c644c2921454429e7f9358d18a45e1473ffffffffffffffffffffffffffffffffffffffff1647604051611d4c90614f8f565b60006040518083038185875af1925050503d8060008114611d89576040519150601f19603f3d011682016040523d82523d6000602084013e611d8e565b606091505b5050905080611d9c57600080fd5b5050565b3373ffffffffffffffffffffffffffffffffffffffff16611dbf611e4d565b73ffffffffffffffffffffffffffffffffffffffff161480611df15750611df03360026136aa90919063ffffffff16565b5b611e30576040517f08c379a0000000000000000000000000000000000000000000000000000000008152600401611e27906153a9565b60405180910390fd5b80601460016101000a81548160ff02191690831515021790555050565b6000600160009054906101000a900473ffffffffffffffffffffffffffffffffffffffff16905090565b60026000541415611ebd576040517f08c379a0000000000000000000000000000000000000000000000000000000008152600401611eb4906153e9565b60405180910390fd5b600260008190555060006013541480611ed857506013544211155b8015611ee757506002600a5410155b80611f245750611ef5611e4d565b73ffffffffffffffffffffffffffffffffffffffff163373ffffffffffffffffffffffffffffffffffffffff16145b611f63576040517f08c379a0000000000000000000000000000000000000000000000000000000008152600401611f5a90615269565b60405180910390fd5b6000611f6e33611aa8565b14611fae576040517f08c379a0000000000000000000000000000000000000000000000000000000008152600401611fa5906153c9565b60405180910390fd5b611fb78261157a565b50600034118015611fc55750805b15611feb57600a34611fd79190615665565b601254611fe4919061560f565b6012819055505b600a6000815480929190611ffe9061584f565b919050555081600b6000600a548152602001908152602001600020908051906020019061202c9291906141ce565b5034600c6000600a54815260200190815260200160002081905550601460029054906101000a900473ffffffffffffffffffffffffffffffffffffffff1673ffffffffffffffffffffffffffffffffffffffff16630c8073196040518163ffffffff1660e01b815260040160206040518083038186803b1580156120af57600080fd5b505afa1580156120c3573d6000803e3d6000fd5b505050506040513d601f19601f820116820180604052508101906120e79190614925565b600d6000600a548152602001908152602001600020819055506001600e60008480519060200120815260200190815260200160002060006101000a81548160ff021916908315150217905550600a54600f60003373ffffffffffffffffffffffffffffffffffffffff1673ffffffffffffffffffffffffffffffffffffffff1681526020019081526020016000208190555061218533600a5461382f565b60016000819055505050565b3373ffffffffffffffffffffffffffffffffffffffff166121b0611e4d565b73ffffffffffffffffffffffffffffffffffffffff1614806121e257506121e13360026136aa90919063ffffffff16565b5b612221576040517f08c379a0000000000000000000000000000000000000000000000000000000008152600401612218906153a9565b60405180910390fd5b8060138190555050565b60606005805461223a906157ec565b80601f0160208091040260200160405190810160405280929190818152602001828054612266906157ec565b80156122b35780601f10612288576101008083540402835291602001916122b3565b820191906000526020600020905b81548152906001019060200180831161229657829003601f168201915b5050505050905090565b6122cf6122c86132a4565b8383613a09565b5050565b6000600f60003373ffffffffffffffffffffffffffffffffffffffff1673ffffffffffffffffffffffffffffffffffffffff16815260200190815260200160002054905090565b61232b6123256132a4565b83613365565b61236a576040517f08c379a000000000000000000000000000000000000000000000000000000000815260040161236190615389565b60405180910390fd5b61237684848484613b76565b50505050565b6060600073ffffffffffffffffffffffffffffffffffffffff16601a60009054906101000a900473ffffffffffffffffffffffffffffffffffffffff1673ffffffffffffffffffffffffffffffffffffffff16146124de57600167ffffffffffffffff811115612415577f4e487b7100000000000000000000000000000000000000000000000000000000600052604160045260246000fd5b6040519080825280602002602001820160405280156124435781602001602082028036833780820191505090505b509050601a60009054906101000a900473ffffffffffffffffffffffffffffffffffffffff16816000815181106124a3577f4e487b7100000000000000000000000000000000000000000000000000000000600052603260045260246000fd5b602002602001019073ffffffffffffffffffffffffffffffffffffffff16908173ffffffffffffffffffffffffffffffffffffffff16815250505b919050565b606080600073ffffffffffffffffffffffffffffffffffffffff16601a60009054906101000a900473ffffffffffffffffffffffffffffffffffffffff1673ffffffffffffffffffffffffffffffffffffffff161461270157600167ffffffffffffffff81111561257d577f4e487b7100000000000000000000000000000000000000000000000000000000600052604160045260246000fd5b6040519080825280602002602001820160405280156125ab5781602001602082028036833780820191505090505b509150601a60009054906101000a900473ffffffffffffffffffffffffffffffffffffffff168260008151811061260b577f4e487b7100000000000000000000000000000000000000000000000000000000600052603260045260246000fd5b602002602001019073ffffffffffffffffffffffffffffffffffffffff16908173ffffffffffffffffffffffffffffffffffffffff1681525050600167ffffffffffffffff811115612686577f4e487b7100000000000000000000000000000000000000000000000000000000600052604160045260246000fd5b6040519080825280602002602001820160405280156126b45781602001602082028036833780820191505090505b509050601954816000815181106126f4577f4e487b7100000000000000000000000000000000000000000000000000000000600052603260045260246000fd5b6020026020010181815250505b915091565b6060601180548060200260200160405190810160405280929190818152602001828054801561278a57602002820191906000526020600020905b8160009054906101000a900473ffffffffffffffffffffffffffffffffffffffff1673ffffffffffffffffffffffffffffffffffffffff1681526020019060010190808311612740575b5050505050905090565b606061279f82613238565b6127de576040517f08c379a00000000000000000000000000000000000000000000000000000000081526004016127d590615349565b60405180910390fd5b600182141561289357601560009054906101000a900473ffffffffffffffffffffffffffffffffffffffff1673ffffffffffffffffffffffffffffffffffffffff1663392f37e96040518163ffffffff1660e01b815260040160006040518083038186803b15801561284f57600080fd5b505afa158015612863573d6000803e3d6000fd5b505050506040513d6000823e3d601f19601f8201168201806040525081019061288c9190614867565b9050612cc2565b606060005b601180549050811015612b2b57601181815481106128df577f4e487b7100000000000000000000000000000000000000000000000000000000600052603260045260246000fd5b9060005260206000200160009054906101000a900473ffffffffffffffffffffffffffffffffffffffff1673ffffffffffffffffffffffffffffffffffffffff166370a0823161292e866116c6565b6040518263ffffffff1660e01b815260040161294a9190614fa4565b60206040518083038186803b15801561296257600080fd5b505afa92505050801561299357506040513d601f19601f820116820180604052508101906129909190614925565b60015b6129cf573d80600081146129c3576040519150601f19603f3d011682016040523d82523d6000602084013e6129c8565b606091505b5050612b09565b6000811115612b07576010600060118481548110612a16577f4e487b7100000000000000000000000000000000000000000000000000000000600052603260045260246000fd5b9060005260206000200160009054906101000a900473ffffffffffffffffffffffffffffffffffffffff1673ffffffffffffffffffffffffffffffffffffffff1673ffffffffffffffffffffffffffffffffffffffff1681526020019081526020016000208054612a86906157ec565b80601f0160208091040260200160405190810160405280929190818152602001828054612ab2906157ec565b8015612aff5780601f10612ad457610100808354040283529160200191612aff565b820191906000526020600020905b815481529060010190602001808311612ae257829003601f168201915b505050505092505b505b600082511115612b1857612b2b565b8080612b239061584f565b915050612898565b50600073ffffffffffffffffffffffffffffffffffffffff166018600085815260200190815260200160002060009054906101000a900473ffffffffffffffffffffffffffffffffffffffff1673ffffffffffffffffffffffffffffffffffffffff161415612bbc57601460029054906101000a900473ffffffffffffffffffffffffffffffffffffffff16612bf1565b6018600084815260200190815260200160002060009054906101000a900473ffffffffffffffffffffffffffffffffffffffff165b73ffffffffffffffffffffffffffffffffffffffff1663aaa4fa0884600b6000878152602001908152602001600020600c600088815260200190815260200160002054600d600089815260200190815260200160002054866040518663ffffffff1660e01b8152600401612c69959493929190615424565b60006040518083038186803b158015612c8157600080fd5b505afa158015612c95573d6000803e3d6000fd5b505050506040513d6000823e3d601f19601f82011682018060405250810190612cbe9190614867565b9150505b919050565b3373ffffffffffffffffffffffffffffffffffffffff16612ce6611e4d565b73ffffffffffffffffffffffffffffffffffffffff161480612d185750612d173360026136aa90919063ffffffff16565b5b612d57576040517f08c379a0000000000000000000000000000000000000000000000000000000008152600401612d4e906153a9565b60405180910390fd5b6000838390501415612da95780601460026101000a81548173ffffffffffffffffffffffffffffffffffffffff021916908373ffffffffffffffffffffffffffffffffffffffff160217905550612e5d565b60005b83839050811015612e5b578160186000868685818110612df5577f4e487b7100000000000000000000000000000000000000000000000000000000600052603260045260246000fd5b90506020020135815260200190815260200160002060006101000a81548173ffffffffffffffffffffffffffffffffffffffff021916908373ffffffffffffffffffffffffffffffffffffffff1602179055508080612e539061584f565b915050612dac565b505b505050565b6000600960008473ffffffffffffffffffffffffffffffffffffffff1673ffffffffffffffffffffffffffffffffffffffff16815260200190815260200160002060008373ffffffffffffffffffffffffffffffffffffffff1673ffffffffffffffffffffffffffffffffffffffff16815260200190815260200160002060009054906101000a900460ff16905092915050565b3373ffffffffffffffffffffffffffffffffffffffff16612f15611e4d565b73ffffffffffffffffffffffffffffffffffffffff161480612f475750612f463360026136aa90919063ffffffff16565b5b612f86576040517f08c379a0000000000000000000000000000000000000000000000000000000008152600401612f7d906153a9565b60405180910390fd5b80601560006101000a81548173ffffffffffffffffffffffffffffffffffffffff021916908373ffffffffffffffffffffffffffffffffffffffff160217905550612fd16001613238565b612fe157612fe033600161382f565b5b50565b612fec6132a4565b73ffffffffffffffffffffffffffffffffffffffff1661300a611e4d565b73ffffffffffffffffffffffffffffffffffffffff1614613060576040517f08c379a000000000000000000000000000000000000000000000000000000000815260040161305790615329565b60405180910390fd5b600073ffffffffffffffffffffffffffffffffffffffff168173ffffffffffffffffffffffffffffffffffffffff1614156130d0576040517f08c379a00000000000000000000000000000000000000000000000000000000081526004016130c790615169565b60405180910390fd5b6130d981613769565b50565b60007f553e757e000000000000000000000000000000000000000000000000000000007bffffffffffffffffffffffffffffffffffffffffffffffffffffffff1916827bffffffffffffffffffffffffffffffffffffffffffffffffffffffff1916148061314f575061314e82613bd2565b5b9050919050565b60007f80ac58cd000000000000000000000000000000000000000000000000000000007bffffffffffffffffffffffffffffffffffffffffffffffffffffffff1916827bffffffffffffffffffffffffffffffffffffffffffffffffffffffff1916148061322157507f5b5e139f000000000000000000000000000000000000000000000000000000007bffffffffffffffffffffffffffffffffffffffffffffffffffffffff1916827bffffffffffffffffffffffffffffffffffffffffffffffffffffffff1916145b806132315750613230826130dc565b5b9050919050565b60008073ffffffffffffffffffffffffffffffffffffffff166006600084815260200190815260200160002060009054906101000a900473ffffffffffffffffffffffffffffffffffffffff1673ffffffffffffffffffffffffffffffffffffffff1614159050919050565b600033905090565b816008600083815260200190815260200160002060006101000a81548173ffffffffffffffffffffffffffffffffffffffff021916908373ffffffffffffffffffffffffffffffffffffffff160217905550808273ffffffffffffffffffffffffffffffffffffffff1661331f836116c6565b73ffffffffffffffffffffffffffffffffffffffff167f8c5be1e5ebec7d5bd14f71427d1e84f3dd0314c0f7b2291e5b200ac8c7c3b92560405160405180910390a45050565b600061337082613238565b6133af576040517f08c379a00000000000000000000000000000000000000000000000000000000081526004016133a690615229565b60405180910390fd5b60006133ba836116c6565b90508073ffffffffffffffffffffffffffffffffffffffff168473ffffffffffffffffffffffffffffffffffffffff16148061342957508373ffffffffffffffffffffffffffffffffffffffff1661341184610a7c565b73ffffffffffffffffffffffffffffffffffffffff16145b8061343a57506134398185612e62565b5b91505092915050565b8273ffffffffffffffffffffffffffffffffffffffff16613463826116c6565b73ffffffffffffffffffffffffffffffffffffffff16146134b9576040517f08c379a00000000000000000000000000000000000000000000000000000000081526004016134b090615189565b60405180910390fd5b600073ffffffffffffffffffffffffffffffffffffffff168273ffffffffffffffffffffffffffffffffffffffff161415613529576040517f08c379a0000000000000000000000000000000000000000000000000000000008152600401613520906151c9565b60405180910390fd5b613534838383613c3c565b61353f6000826132ac565b6001600760008573ffffffffffffffffffffffffffffffffffffffff1673ffffffffffffffffffffffffffffffffffffffff168152602001908152602001600020600082825461358f91906156f0565b925050819055506001600760008473ffffffffffffffffffffffffffffffffffffffff1673ffffffffffffffffffffffffffffffffffffffff16815260200190815260200160002060008282546135e6919061560f565b92505081905550816006600083815260200190815260200160002060006101000a81548173ffffffffffffffffffffffffffffffffffffffff021916908373ffffffffffffffffffffffffffffffffffffffff160217905550808273ffffffffffffffffffffffffffffffffffffffff168473ffffffffffffffffffffffffffffffffffffffff167fddf252ad1be2c89b69c2b068fc378daa952ba7f163c4a11628f55a4df523b3ef60405160405180910390a46136a5838383613d94565b505050565b60006136d2836000018373ffffffffffffffffffffffffffffffffffffffff1660001b613d99565b905092915050565b6000613702836000018373ffffffffffffffffffffffffffffffffffffffff1660001b613dbc565b905092915050565b600061371882600001613f42565b9050919050565b600061372e8360000183613f53565b60001c905092915050565b6000613761836000018373ffffffffffffffffffffffffffffffffffffffff1660001b613fa4565b905092915050565b6000600160009054906101000a900473ffffffffffffffffffffffffffffffffffffffff16905081600160006101000a81548173ffffffffffffffffffffffffffffffffffffffff021916908373ffffffffffffffffffffffffffffffffffffffff1602179055508173ffffffffffffffffffffffffffffffffffffffff168173ffffffffffffffffffffffffffffffffffffffff167f8be0079c531659141344cd1fd0a4f28419497f9722a3daafe3b4186f6b6457e060405160405180910390a35050565b600073ffffffffffffffffffffffffffffffffffffffff168273ffffffffffffffffffffffffffffffffffffffff16141561389f576040517f08c379a0000000000000000000000000000000000000000000000000000000008152600401613896906152e9565b60405180910390fd5b6138a881613238565b156138e8576040517f08c379a00000000000000000000000000000000000000000000000000000000081526004016138df906151a9565b60405180910390fd5b6138f460008383613c3c565b6001600760008473ffffffffffffffffffffffffffffffffffffffff1673ffffffffffffffffffffffffffffffffffffffff1681526020019081526020016000206000828254613944919061560f565b92505081905550816006600083815260200190815260200160002060006101000a81548173ffffffffffffffffffffffffffffffffffffffff021916908373ffffffffffffffffffffffffffffffffffffffff160217905550808273ffffffffffffffffffffffffffffffffffffffff16600073ffffffffffffffffffffffffffffffffffffffff167fddf252ad1be2c89b69c2b068fc378daa952ba7f163c4a11628f55a4df523b3ef60405160405180910390a4613a0560008383613d94565b5050565b8173ffffffffffffffffffffffffffffffffffffffff168373ffffffffffffffffffffffffffffffffffffffff161415613a78576040517f08c379a0000000000000000000000000000000000000000000000000000000008152600401613a6f906151e9565b60405180910390fd5b80600960008573ffffffffffffffffffffffffffffffffffffffff1673ffffffffffffffffffffffffffffffffffffffff16815260200190815260200160002060008473ffffffffffffffffffffffffffffffffffffffff1673ffffffffffffffffffffffffffffffffffffffff16815260200190815260200160002060006101000a81548160ff0219169083151502179055508173ffffffffffffffffffffffffffffffffffffffff168373ffffffffffffffffffffffffffffffffffffffff167f17307eab39ab6107e8899845ad3d59bd9653f200f220920489ca2b5937696c3183604051613b6991906150d1565b60405180910390a3505050565b613b81848484613443565b613b8d84848484614014565b613bcc576040517f08c379a0000000000000000000000000000000000000000000000000000000008152600401613bc390615129565b60405180910390fd5b50505050565b60007f01ffc9a7000000000000000000000000000000000000000000000000000000007bffffffffffffffffffffffffffffffffffffffffffffffffffffffff1916827bffffffffffffffffffffffffffffffffffffffffffffffffffffffff1916149050919050565b600073ffffffffffffffffffffffffffffffffffffffff168373ffffffffffffffffffffffffffffffffffffffff161480613c885750613c7b81613238565b8015613c875750600181145b5b80613cb057506017600082815260200190815260200160002060009054906101000a900460ff165b80613cc75750601460009054906101000a900460ff165b613d06576040517f08c379a0000000000000000000000000000000000000000000000000000000008152600401613cfd90615209565b60405180910390fd5b6000600f60008573ffffffffffffffffffffffffffffffffffffffff1673ffffffffffffffffffffffffffffffffffffffff1681526020019081526020016000208190555080600f60008473ffffffffffffffffffffffffffffffffffffffff1673ffffffffffffffffffffffffffffffffffffffff16815260200190815260200160002081905550505050565b505050565b600080836001016000848152602001908152602001600020541415905092915050565b60008083600101600084815260200190815260200160002054905060008114613f36576000600182613dee91906156f0565b9050600060018660000180549050613e0691906156f0565b9050818114613ec1576000866000018281548110613e4d577f4e487b7100000000000000000000000000000000000000000000000000000000600052603260045260246000fd5b9060005260206000200154905080876000018481548110613e97577f4e487b7100000000000000000000000000000000000000000000000000000000600052603260045260246000fd5b90600052602060002001819055508387600101600083815260200190815260200160002081905550505b85600001805480613efb577f4e487b7100000000000000000000000000000000000000000000000000000000600052603160045260246000fd5b600190038181906000526020600020016000905590558560010160008681526020019081526020016000206000905560019350505050613f3c565b60009150505b92915050565b600081600001805490509050919050565b6000826000018281548110613f91577f4e487b7100000000000000000000000000000000000000000000000000000000600052603260045260246000fd5b9060005260206000200154905092915050565b6000613fb08383613d99565b61400957826000018290806001815401808255809150506001900390600052602060002001600090919091909150558260000180549050836001016000848152602001908152602001600020819055506001905061400e565b600090505b92915050565b60006140358473ffffffffffffffffffffffffffffffffffffffff166141ab565b1561419e578373ffffffffffffffffffffffffffffffffffffffff1663150b7a0261405e6132a4565b8786866040518563ffffffff1660e01b81526004016140809493929190614fbf565b602060405180830381600087803b15801561409a57600080fd5b505af19250505080156140cb57506040513d601f19601f820116820180604052508101906140c891906147fd565b60015b61414e573d80600081146140fb576040519150601f19603f3d011682016040523d82523d6000602084013e614100565b606091505b50600081511415614146576040517f08c379a000000000000000000000000000000000000000000000000000000000815260040161413d90615129565b60405180910390fd5b805181602001fd5b63150b7a0260e01b7bffffffffffffffffffffffffffffffffffffffffffffffffffffffff1916817bffffffffffffffffffffffffffffffffffffffffffffffffffffffff1916149150506141a3565b600190505b949350505050565b6000808273ffffffffffffffffffffffffffffffffffffffff163b119050919050565b8280546141da906157ec565b90600052602060002090601f0160209004810192826141fc5760008555614243565b82601f1061421557805160ff1916838001178555614243565b82800160010185558215614243579182015b82811115614242578251825591602001919060010190614227565b5b5090506142509190614254565b5090565b5b8082111561426d576000816000905550600101614255565b5090565b600061428461427f846154aa565b615485565b90508281526020810184848401111561429c57600080fd5b6142a78482856157aa565b509392505050565b60006142c26142bd846154db565b615485565b9050828152602081018484840111156142da57600080fd5b6142e58482856157aa565b509392505050565b60006143006142fb846154db565b615485565b90508281526020810184848401111561431857600080fd5b6143238482856157b9565b509392505050565b60008135905061433a81615f05565b92915050565b60008135905061434f81615f1c565b92915050565b60008083601f84011261436757600080fd5b8235905067ffffffffffffffff81111561438057600080fd5b60208301915083602082028301111561439857600080fd5b9250929050565b6000813590506143ae81615f33565b92915050565b6000815190506143c381615f33565b92915050565b6000813590506143d881615f4a565b92915050565b6000815190506143ed81615f4a565b92915050565b600082601f83011261440457600080fd5b8135614414848260208601614271565b91505092915050565b600082601f83011261442e57600080fd5b813561443e8482602086016142af565b91505092915050565b600082601f83011261445857600080fd5b81516144688482602086016142ed565b91505092915050565b60008135905061448081615f61565b92915050565b60008151905061449581615f61565b92915050565b6000602082840312156144ad57600080fd5b60006144bb8482850161432b565b91505092915050565b600080604083850312156144d757600080fd5b60006144e585828601614340565b92505060206144f685828601614471565b9150509250929050565b6000806040838503121561451357600080fd5b60006145218582860161432b565b92505060206145328582860161432b565b9150509250929050565b60008060006060848603121561455157600080fd5b600061455f8682870161432b565b93505060206145708682870161432b565b925050604061458186828701614471565b9150509250925092565b600080600080608085870312156145a157600080fd5b60006145af8782880161432b565b94505060206145c08782880161432b565b93505060406145d187828801614471565b925050606085013567ffffffffffffffff8111156145ee57600080fd5b6145fa878288016143f3565b91505092959194509250565b6000806040838503121561461957600080fd5b60006146278582860161432b565b92505060206146388582860161439f565b9150509250929050565b6000806040838503121561465557600080fd5b60006146638582860161432b565b925050602083013567ffffffffffffffff81111561468057600080fd5b61468c8582860161441d565b9150509250929050565b600080604083850312156146a957600080fd5b60006146b78582860161432b565b92505060206146c885828601614471565b9150509250929050565b6000806000604084860312156146e757600080fd5b600084013567ffffffffffffffff81111561470157600080fd5b61470d86828701614355565b935093505060206147208682870161432b565b9150509250925092565b60008060006040848603121561473f57600080fd5b600084013567ffffffffffffffff81111561475957600080fd5b61476586828701614355565b935093505060206147788682870161439f565b9150509250925092565b60006020828403121561479457600080fd5b60006147a28482850161439f565b91505092915050565b6000602082840312156147bd57600080fd5b60006147cb848285016143b4565b91505092915050565b6000602082840312156147e657600080fd5b60006147f4848285016143c9565b91505092915050565b60006020828403121561480f57600080fd5b600061481d848285016143de565b91505092915050565b60006020828403121561483857600080fd5b600082013567ffffffffffffffff81111561485257600080fd5b61485e8482850161441d565b91505092915050565b60006020828403121561487957600080fd5b600082015167ffffffffffffffff81111561489357600080fd5b61489f84828501614447565b91505092915050565b600080604083850312156148bb57600080fd5b600083013567ffffffffffffffff8111156148d557600080fd5b6148e18582860161441d565b92505060206148f28582860161439f565b9150509250929050565b60006020828403121561490e57600080fd5b600061491c84828501614471565b91505092915050565b60006020828403121561493757600080fd5b600061494584828501614486565b91505092915050565b6000806040838503121561496157600080fd5b600061496f85828601614471565b925050602061498085828601614471565b9150509250929050565b600061499683836149d2565b60208301905092915050565b60006149ae83836149e1565b60208301905092915050565b60006149c68383614f71565b60208301905092915050565b6149db81615736565b82525050565b6149ea81615724565b82525050565b6149f981615724565b82525050565b6000614a0a82615551565b614a1481856155af565b9350614a1f8361550c565b8060005b83811015614a50578151614a3788826149a2565b9750614a4283615588565b925050600181019050614a23565b5085935050505092915050565b6000614a688261555c565b614a7281856155c0565b9350614a7d8361551c565b8060005b83811015614aae578151614a95888261498a565b9750614aa083615595565b925050600181019050614a81565b5085935050505092915050565b6000614ac682615567565b614ad081856155d1565b9350614adb8361552c565b8060005b83811015614b0c578151614af388826149ba565b9750614afe836155a2565b925050600181019050614adf565b5085935050505092915050565b614b2281615748565b82525050565b614b3181615754565b82525050565b6000614b4282615572565b614b4c81856155e2565b9350614b5c8185602086016157b9565b614b6581615954565b840191505092915050565b6000614b7b8261557d565b614b8581856155fe565b9350614b958185602086016157b9565b614b9e81615954565b840191505092915050565b60008154614bb6816157ec565b614bc081866155fe565b94506001821660008114614bdb5760018114614bed57614c20565b60ff1983168652602086019350614c20565b614bf68561553c565b60005b83811015614c1857815481890152600182019150602081019050614bf9565b808801955050505b50505092915050565b6000614c366032836155fe565b9150614c4182615965565b604082019050919050565b6000614c596007836155fe565b9150614c64826159b4565b602082019050919050565b6000614c7c6026836155fe565b9150614c87826159dd565b604082019050919050565b6000614c9f6025836155fe565b9150614caa82615a2c565b604082019050919050565b6000614cc2601c836155fe565b9150614ccd82615a7b565b602082019050919050565b6000614ce56024836155fe565b9150614cf082615aa4565b604082019050919050565b6000614d086019836155fe565b9150614d1382615af3565b602082019050919050565b6000614d2b601e836155fe565b9150614d3682615b1c565b602082019050919050565b6000614d4e602c836155fe565b9150614d5982615b45565b604082019050919050565b6000614d716016836155fe565b9150614d7c82615b94565b602082019050919050565b6000614d94600e836155fe565b9150614d9f82615bbd565b602082019050919050565b6000614db76038836155fe565b9150614dc282615be6565b604082019050919050565b6000614dda602a836155fe565b9150614de582615c35565b604082019050919050565b6000614dfd6029836155fe565b9150614e0882615c84565b604082019050919050565b6000614e206020836155fe565b9150614e2b82615cd3565b602082019050919050565b6000614e43602c836155fe565b9150614e4e82615cfc565b604082019050919050565b6000614e666020836155fe565b9150614e7182615d4b565b602082019050919050565b6000614e89602f836155fe565b9150614e9482615d74565b604082019050919050565b6000614eac6021836155fe565b9150614eb782615dc3565b604082019050919050565b6000614ecf6000836155f3565b9150614eda82615e12565b600082019050919050565b6000614ef26031836155fe565b9150614efd82615e15565b604082019050919050565b6000614f156024836155fe565b9150614f2082615e64565b604082019050919050565b6000614f38601f836155fe565b9150614f4382615eb3565b602082019050919050565b6000614f5b601f836155fe565b9150614f6682615edc565b602082019050919050565b614f7a816157a0565b82525050565b614f89816157a0565b82525050565b6000614f9a82614ec2565b9150819050919050565b6000602082019050614fb960008301846149f0565b92915050565b6000608082019050614fd460008301876149f0565b614fe160208301866149f0565b614fee6040830185614f80565b81810360608301526150008184614b37565b905095945050505050565b600060408201905061502060008301856149f0565b61502d6020830184614f80565b9392505050565b6000602082019050818103600083015261504e81846149ff565b905092915050565b600060208201905081810360008301526150708184614a5d565b905092915050565b600060408201905081810360008301526150928185614a5d565b905081810360208301526150a68184614abb565b90509392505050565b600060208201905081810360008301526150c98184614abb565b905092915050565b60006020820190506150e66000830184614b19565b92915050565b60006020820190506151016000830184614b28565b92915050565b600060208201905081810360008301526151218184614b70565b905092915050565b6000602082019050818103600083015261514281614c29565b9050919050565b6000602082019050818103600083015261516281614c4c565b9050919050565b6000602082019050818103600083015261518281614c6f565b9050919050565b600060208201905081810360008301526151a281614c92565b9050919050565b600060208201905081810360008301526151c281614cb5565b9050919050565b600060208201905081810360008301526151e281614cd8565b9050919050565b6000602082019050818103600083015261520281614cfb565b9050919050565b6000602082019050818103600083015261522281614d1e565b9050919050565b6000602082019050818103600083015261524281614d41565b9050919050565b6000602082019050818103600083015261526281614d64565b9050919050565b6000602082019050818103600083015261528281614d87565b9050919050565b600060208201905081810360008301526152a281614daa565b9050919050565b600060208201905081810360008301526152c281614dcd565b9050919050565b600060208201905081810360008301526152e281614df0565b9050919050565b6000602082019050818103600083015261530281614e13565b9050919050565b6000602082019050818103600083015261532281614e36565b9050919050565b6000602082019050818103600083015261534281614e59565b9050919050565b6000602082019050818103600083015261536281614e7c565b9050919050565b6000602082019050818103600083015261538281614e9f565b9050919050565b600060208201905081810360008301526153a281614ee5565b9050919050565b600060208201905081810360008301526153c281614f08565b9050919050565b600060208201905081810360008301526153e281614f2b565b9050919050565b6000602082019050818103600083015261540281614f4e565b9050919050565b600060208201905061541e6000830184614f80565b92915050565b600060a0820190506154396000830188614f80565b818103602083015261544b8187614ba9565b905061545a6040830186614f80565b6154676060830185614f80565b81810360808301526154798184614b70565b90509695505050505050565b600061548f6154a0565b905061549b828261581e565b919050565b6000604051905090565b600067ffffffffffffffff8211156154c5576154c4615925565b5b6154ce82615954565b9050602081019050919050565b600067ffffffffffffffff8211156154f6576154f5615925565b5b6154ff82615954565b9050602081019050919050565b6000819050602082019050919050565b6000819050602082019050919050565b6000819050602082019050919050565b60008190508160005260206000209050919050565b600081519050919050565b600081519050919050565b600081519050919050565b600081519050919050565b600081519050919050565b6000602082019050919050565b6000602082019050919050565b6000602082019050919050565b600082825260208201905092915050565b600082825260208201905092915050565b600082825260208201905092915050565b600082825260208201905092915050565b600081905092915050565b600082825260208201905092915050565b600061561a826157a0565b9150615625836157a0565b9250827fffffffffffffffffffffffffffffffffffffffffffffffffffffffffffffffff0382111561565a57615659615898565b5b828201905092915050565b6000615670826157a0565b915061567b836157a0565b92508261568b5761568a6158c7565b5b828204905092915050565b60006156a1826157a0565b91506156ac836157a0565b9250817fffffffffffffffffffffffffffffffffffffffffffffffffffffffffffffffff04831182151516156156e5576156e4615898565b5b828202905092915050565b60006156fb826157a0565b9150615706836157a0565b92508282101561571957615718615898565b5b828203905092915050565b600061572f82615780565b9050919050565b600061574182615780565b9050919050565b60008115159050919050565b60007fffffffff0000000000000000000000000000000000000000000000000000000082169050919050565b600073ffffffffffffffffffffffffffffffffffffffff82169050919050565b6000819050919050565b82818337600083830152505050565b60005b838110156157d75780820151818401526020810190506157bc565b838111156157e6576000848401525b50505050565b6000600282049050600182168061580457607f821691505b60208210811415615818576158176158f6565b5b50919050565b61582782615954565b810181811067ffffffffffffffff8211171561584657615845615925565b5b80604052505050565b600061585a826157a0565b91507fffffffffffffffffffffffffffffffffffffffffffffffffffffffffffffffff82141561588d5761588c615898565b5b600182019050919050565b7f4e487b7100000000000000000000000000000000000000000000000000000000600052601160045260246000fd5b7f4e487b7100000000000000000000000000000000000000000000000000000000600052601260045260246000fd5b7f4e487b7100000000000000000000000000000000000000000000000000000000600052602260045260246000fd5b7f4e487b7100000000000000000000000000000000000000000000000000000000600052604160045260246000fd5b6000601f19601f8301169050919050565b7f4552433732313a207472616e7366657220746f206e6f6e20455243373231526560008201527f63656976657220696d706c656d656e7465720000000000000000000000000000602082015250565b7f4945524337323100000000000000000000000000000000000000000000000000600082015250565b7f4f776e61626c653a206e6577206f776e657220697320746865207a65726f206160008201527f6464726573730000000000000000000000000000000000000000000000000000602082015250565b7f4552433732313a207472616e736665722066726f6d20696e636f72726563742060008201527f6f776e6572000000000000000000000000000000000000000000000000000000602082015250565b7f4552433732313a20746f6b656e20616c7265616479206d696e74656400000000600082015250565b7f4552433732313a207472616e7366657220746f20746865207a65726f2061646460008201527f7265737300000000000000000000000000000000000000000000000000000000602082015250565b7f4552433732313a20617070726f766520746f2063616c6c657200000000000000600082015250565b7f4552433732313a207472616e73666572206e6f74207065726d69747465640000600082015250565b7f4552433732313a206f70657261746f7220717565727920666f72206e6f6e657860008201527f697374656e7420746f6b656e0000000000000000000000000000000000000000602082015250565b7f4d65737361676520616c72656164792065786973747300000000000000000000600082015250565b7f43616e6e6f74206d657373616765000000000000000000000000000000000000600082015250565b7f4552433732313a20617070726f76652063616c6c6572206973206e6f74206f7760008201527f6e6572206e6f7220617070726f76656420666f7220616c6c0000000000000000602082015250565b7f4552433732313a2062616c616e636520717565727920666f7220746865207a6560008201527f726f206164647265737300000000000000000000000000000000000000000000602082015250565b7f4552433732313a206f776e657220717565727920666f72206e6f6e657869737460008201527f656e7420746f6b656e0000000000000000000000000000000000000000000000602082015250565b7f4552433732313a206d696e7420746f20746865207a65726f2061646472657373600082015250565b7f4552433732313a20617070726f76656420717565727920666f72206e6f6e657860008201527f697374656e7420746f6b656e0000000000000000000000000000000000000000602082015250565b7f4f776e61626c653a2063616c6c6572206973206e6f7420746865206f776e6572600082015250565b7f4552433732314d657461646174613a2055524920717565727920666f72206e6f60008201527f6e6578697374656e7420746f6b656e0000000000000000000000000000000000602082015250565b7f4552433732313a20617070726f76616c20746f2063757272656e74206f776e6560008201527f7200000000000000000000000000000000000000000000000000000000000000602082015250565b50565b7f4552433732313a207472616e736665722063616c6c6572206973206e6f74206f60008201527f776e6572206e6f7220617070726f766564000000000000000000000000000000602082015250565b7f41646d696e436f6e74726f6c3a204d757374206265206f776e6572206f72206160008201527f646d696e00000000000000000000000000000000000000000000000000000000602082015250565b7f596f75206861766520616c72656164792073656e742061206d65737361676500600082015250565b7f5265656e7472616e637947756172643a207265656e7472616e742063616c6c00600082015250565b615f0e81615724565b8114615f1957600080fd5b50565b615f2581615736565b8114615f3057600080fd5b50565b615f3c81615748565b8114615f4757600080fd5b50565b615f5381615754565b8114615f5e57600080fd5b50565b615f6a816157a0565b8114615f7557600080fd5b5056fea264697066735822122073fe58cb218bba5b7629d5e039c7e70ad78908cb40835fc1c40576aa9e85e8e864736f6c63430008040033",
  "linkReferences": {},
  "deployedLinkReferences": {}
}