{
  "_format": "hh-sol-artifact-1",
  "contractName": "Invader",
  "sourceName": "contracts/invaded/invader.sol",
  "abi": [
    {
      "inputs": [],
      "stateMutability": "nonpayable",
      "type": "constructor"
    },
    {
      "inputs": [],
      "name": "getAngle",
      "outputs": [
        {
          "internalType": "uint256",
          "name": "",
          "type": "uint256"
        }
      ],
      "stateMutability": "view",
      "type": "function"
    },
    {
      "inputs": [
        {
          "internalType": "uint256",
          "name": "tokenId",
          "type": "uint256"
        },
        {
          "internalType": "string",
          "name": "message",
          "type": "string"
        },
        {
          "internalType": "uint256",
          "name": "value",
          "type": "uint256"
        },
        {
          "internalType": "uint256",
          "name": "angle",
          "type": "uint256"
        },
        {
          "internalType": "string",
          "name": "community",
          "type": "string"
        }
      ],
      "name": "metadata",
      "outputs": [
        {
          "internalType": "string",
          "name": "",
          "type": "string"
        }
      ],
      "stateMutability": "view",
      "type": "function"
    },
    {
      "inputs": [
        {
          "internalType": "string",
          "name": "message",
          "type": "string"
        }
      ],
      "name": "renderLines",
      "outputs": [
        {
          "internalType": "string",
          "name": "",
          "type": "string"
        }
      ],
      "stateMutability": "pure",
      "type": "function"
    },
    {
      "inputs": [
        {
          "internalType": "uint256",
          "name": "",
          "type": "uint256"
        },
        {
          "internalType": "string",
          "name": "message",
          "type": "string"
        },
        {
          "internalType": "uint256",
          "name": "",
          "type": "uint256"
        },
        {
          "internalType": "uint256",
          "name": "angle",
          "type": "uint256"
        },
        {
          "internalType": "string",
          "name": "community",
          "type": "string"
        }
      ],
      "name": "svg",
      "outputs": [
        {
          "internalType": "string",
          "name": "",
          "type": "string"
        }
      ],
      "stateMutability": "view",
      "type": "function"
    },
    {
      "inputs": [
        {
          "internalType": "string",
          "name": "message_",
          "type": "string"
        }
      ],
      "name": "validateMessage",
      "outputs": [
        {
          "internalType": "bool",
          "name": "",
          "type": "bool"
        }
      ],
      "stateMutability": "pure",
      "type": "function"
    }
  ],
  "bytecode": "0x60806040523480156200001157600080fd5b50600080600181540180825580915050600190039060005260206000200160006040518060800160405280605b815260200162004ae6605b9139909190915090805190602001906200006592919062000778565b506000806001815401808255809150506001900390600052602060002001600060405180606001604052806029815260200162004a506029913990919091509080519060200190620000b992919062000778565b506000806001815401808255809150506001900390600052602060002001600060405180610be00160405280610ba5815260200162003e0f610ba59139909190915090805190602001906200011092919062000778565b50600080600181540180825580915050600190039060005260206000200160006040518060600160405280603a8152602001620049dd603a9139909190915090805190602001906200016492919062000778565b506000806001815401808255809150506001900390600052602060002001600060405180606001604052806021815260200162003dee6021913990919091509080519060200190620001b892919062000778565b50600080600181540180825580915050600190039060005260206000200160006040518060400160405280601381526020017f2e62207b2066696c6c3a20626c61636b3b207d00000000000000000000000000815250909190915090805190602001906200022892919062000778565b5060008060018154018082558091505060019003906000526020600020016000604051806060016040528060298152602001620049b460299139909190915090805190602001906200027c92919062000778565b506000806001815401808255809150506001900390600052602060002001600060405180606001604052806039815260200162004a176039913990919091509080519060200190620002d092919062000778565b50600080600181540180825580915050600190039060005260206000200160006040518060a00160405280606d815260200162004a79606d9139909190915090805190602001906200032492919062000778565b50600080600181540180825580915050600190039060005260206000200160006040518060400160405280600881526020017f3c2f7374796c653e000000000000000000000000000000000000000000000000815250909190915090805190602001906200039492919062000778565b50600080600181540180825580915050600190039060005260206000200160006040518060400160405280601481526020017f3c7265637420636c6173733d2762206627202f3e000000000000000000000000815250909190915090805190602001906200040492919062000778565b50600080600181540180825580915050600190039060005260206000200160006040518060400160405280600581526020017f3c7376673e000000000000000000000000000000000000000000000000000000815250909190915090805190602001906200047492919062000778565b5060006040518060400160405280600781526020017f3c545241434b3e00000000000000000000000000000000000000000000000000815250908060018154018082558091505060019003906000526020600020016000909190919091509080519060200190620004e792919062000778565b50600080600181540180825580915050600190039060005260206000200160006040518060400160405280600681526020017f3c2f7376673e0000000000000000000000000000000000000000000000000000815250909190915090805190602001906200055792919062000778565b5060006040518060400160405280600981526020017f3c4d4553534147453e0000000000000000000000000000000000000000000000815250908060018154018082558091505060019003906000526020600020016000909190919091509080519060200190620005ca92919062000778565b50600080600181540180825580915050600190039060005260206000200160006040518060400160405280601e81526020017f3c737667206f766572666c6f773d2776697369626c65273e3c746578743e0000815250909190915090805190602001906200063a92919062000778565b5060006040518060400160405280600b81526020017f3c434f4d4d554e4954593e000000000000000000000000000000000000000000815250908060018154018082558091505060019003906000526020600020016000909190919091509080519060200190620006ad92919062000778565b50600080600181540180825580915050600190039060005260206000200160006040518060a001604052806075815260200162004b4160759139909190915090805190602001906200070192919062000778565b50600080600181540180825580915050600190039060005260206000200160006040518060400160405280600681526020017f3c2f7376673e0000000000000000000000000000000000000000000000000000815250909190915090805190602001906200077192919062000778565b506200088d565b828054620007869062000828565b90600052602060002090601f016020900481019282620007aa5760008555620007f6565b82601f10620007c557805160ff1916838001178555620007f6565b82800160010185558215620007f6579182015b82811115620007f5578251825591602001919060010190620007d8565b5b50905062000805919062000809565b5090565b5b80821115620008245760008160009055506001016200080a565b5090565b600060028204905060018216806200084157607f821691505b602082108114156200085857620008576200085e565b5b50919050565b7f4e487b7100000000000000000000000000000000000000000000000000000000600052602260045260246000fd5b613551806200089d6000396000f3fe608060405234801561001057600080fd5b50600436106100575760003560e01c80630c8073191461005c5780632c6a21e81461007a5780635cda7927146100aa578063aaa4fa08146100da578063d285f3b21461010a575b600080fd5b61006461013a565b60405161007191906129dc565b60405180910390f35b610094600480360381019061008f9190611f44565b61023f565b6040516100a1919061293a565b60405180910390f35b6100c460048036038101906100bf9190611f03565b610505565b6040516100d1919061291f565b60405180910390f35b6100f460048036038101906100ef9190611f44565b6108f6565b604051610101919061293a565b60405180910390f35b610124600480360381019061011f9190611f03565b6109b3565b604051610131919061293a565b60405180910390f35b6000804342336040516020016101509190612598565b6040516020818303038152906040528051906020012060001c6101739190612b41565b45424160405160200161018691906125b3565b6040516020818303038152906040528051906020012060001c6101a99190612b41565b44426101b59190612ab4565b6101bf9190612ab4565b6101c99190612ab4565b6101d39190612ab4565b6101dd9190612ab4565b6040516020016101ed9190612904565b6040516020818303038152906040528051906020012060001c90506101686103e8808361021a9190612b41565b6102249190612b72565b8261022f9190612c07565b6102399190612e04565b91505090565b60608060005b6000805490508110156104f7576102d46000828154811061028f577f4e487b7100000000000000000000000000000000000000000000000000000000600052603260045260246000fd5b906000526020600020016040518060400160405280600981526020017f3c4d4553534147453e000000000000000000000000000000000000000000000081525061151e565b1561030a57816102e3886109b3565b6040516020016102f4929190612609565b60405160208183030381529060405291506104e4565b61038c60008281548110610347577f4e487b7100000000000000000000000000000000000000000000000000000000600052603260045260246000fd5b906000526020600020016040518060400160405280600781526020017f3c545241434b3e0000000000000000000000000000000000000000000000000081525061151e565b156103c2578161039b86611577565b6040516020016103ac929190612609565b60405160208183030381529060405291506104e3565b610444600082815481106103ff577f4e487b7100000000000000000000000000000000000000000000000000000000600052603260045260246000fd5b906000526020600020016040518060400160405280600b81526020017f3c434f4d4d554e4954593e00000000000000000000000000000000000000000081525061151e565b1561047a57816104538561166a565b604051602001610464929190612609565b60405160208183030381529060405291506104e2565b81600082815481106104b5577f4e487b7100000000000000000000000000000000000000000000000000000000600052603260045260246000fd5b906000526020600020016040516020016104d092919061262d565b60405160208183030381529060405291505b5b5b80806104ef90612d7b565b915050610245565b508091505095945050505050565b600080829050600081511180156105865750602060f81b81600081518110610556577f4e487b7100000000000000000000000000000000000000000000000000000000600052603260045260246000fd5b602001015160f81c60f81b7effffffffffffffffffffffffffffffffffffffffffffffffffffffffffffff191614155b80156106085750602060f81b81600183516105a19190612c07565b815181106105d8577f4e487b7100000000000000000000000000000000000000000000000000000000600052603260045260246000fd5b602001015160f81c60f81b7effffffffffffffffffffffffffffffffffffffffffffffffffffffffffffff191614155b610647576040517f08c379a000000000000000000000000000000000000000000000000000000000815260040161063e9061299c565b60405180910390fd5b60488151111561068c576040517f08c379a00000000000000000000000000000000000000000000000000000000081526004016106839061297c565b60405180910390fd5b60005b81518110156108eb5760008282815181106106d3577f4e487b7100000000000000000000000000000000000000000000000000000000600052603260045260246000fd5b602001015160f81c60f81b9050606160f81b817effffffffffffffffffffffffffffffffffffffffffffffffffffffffffffff19161015801561073c5750607a60f81b817effffffffffffffffffffffffffffffffffffffffffffffffffffffffffffff191611155b15801561076f5750602060f81b817effffffffffffffffffffffffffffffffffffffffffffffffffffffffffffff191614155b80156107a15750602d60f81b817effffffffffffffffffffffffffffffffffffffffffffffffffffffffffffff191614155b156107e1576040517f08c379a00000000000000000000000000000000000000000000000000000000081526004016107d8906129bc565b60405180910390fd5b600182101580156108175750602060f81b817effffffffffffffffffffffffffffffffffffffffffffffffffffffffffffff1916145b80156108975750602060f81b836001846108319190612c07565b81518110610868577f4e487b7100000000000000000000000000000000000000000000000000000000600052603260045260246000fd5b602001015160f81c60f81b7effffffffffffffffffffffffffffffffffffffffffffffffffffffffffffff1916145b156108d7576040517f08c379a00000000000000000000000000000000000000000000000000000000081526004016108ce9061295c565b60405180910390fd5b5080806108e390612d7b565b91505061068f565b506001915050919050565b6060610901866116b9565b61090a86611866565b610917888888888861023f565b61092087611aa3565b6000865111610964576040518060400160405280600381526020017f7d5d7d0000000000000000000000000000000000000000000000000000000000815250610985565b8560405160200161097591906128d7565b6040516020818303038152906040525b6040516020016109999594939291906127ac565b604051602081830303815290604052905095945050505050565b60606000607e67ffffffffffffffff8111156109f8577f4e487b7100000000000000000000000000000000000000000000000000000000600052604160045260246000fd5b6040519080825280601f01601f191660200182016040528015610a2a5781602001600182028036833780820191505090505b5090506000600767ffffffffffffffff811115610a70577f4e487b7100000000000000000000000000000000000000000000000000000000600052604160045260246000fd5b604051908082528060200260200182016040528015610a9e5781602001602082028036833780820191505090505b509050600084905060008060008060018551610aba9190612c07565b905060005b818111611206576000868281518110610b01577f4e487b7100000000000000000000000000000000000000000000000000000000600052603260045260246000fd5b602001015160f81c60f81b90506000821480610b435750602060f81b817effffffffffffffffffffffffffffffffffffffffffffffffffffffffffffff191614155b80610b4d57508282145b15610b6257600186610b5f9190612b0a565b95505b602060f81b817effffffffffffffffffffffffffffffffffffffffffffffffffffffffffffff19161480610b9557508282145b156111f25760008560ff16148015610bbc575060128686610bb69190612b0a565b60ff1611155b80610bd6575060118686610bd09190612b0a565b60ff1611155b15610e09576000601285610bea9190612bcc565b60ff16905060008660ff161115610c8657602060f81b8a8760ff1683610c109190612ab4565b81518110610c47577f4e487b7100000000000000000000000000000000000000000000000000000000600052603260045260246000fd5b60200101907effffffffffffffffffffffffffffffffffffffffffffffffffffffffffffff1916908160001a905350600186610c839190612b0a565b95505b60005b8760ff16811015610da35788818960ff1686888814610ca9576000610cac565b60015b60ff16610cb99190612ab4565b610cc39190612c07565b610ccd9190612ab4565b81518110610d04577f4e487b7100000000000000000000000000000000000000000000000000000000600052603260045260246000fd5b602001015160f81c60f81b8b828960ff1685610d209190612ab4565b610d2a9190612ab4565b81518110610d61577f4e487b7100000000000000000000000000000000000000000000000000000000600052603260045260246000fd5b60200101907effffffffffffffffffffffffffffffffffffffffffffffffffffffffffffff1916908160001a9053508080610d9b90612d7b565b915050610c89565b508686610db09190612b0a565b955085898660ff1681518110610def577f4e487b7100000000000000000000000000000000000000000000000000000000600052603260045260246000fd5b602002602001019060ff16908160ff1681525050506111ed565b60128660ff1611156110635760008560ff161115610e3557600184610e2e9190612b0a565b9350600094505b6000601285610e449190612bcc565b60ff16905060005b8760ff1681101561100b57600187610e649190612b0a565b965088818960ff1686888814610e7b576000610e7e565b60015b60ff16610e8b9190612ab4565b610e959190612c07565b610e9f9190612ab4565b81518110610ed6577f4e487b7100000000000000000000000000000000000000000000000000000000600052603260045260246000fd5b602001015160f81c60f81b8b601283610eef9190612e04565b84610efa9190612ab4565b81518110610f31577f4e487b7100000000000000000000000000000000000000000000000000000000600052603260045260246000fd5b60200101907effffffffffffffffffffffffffffffffffffffffffffffffffffffffffffff1916908160001a905350600081118015610f7c57506011601282610f7a9190612e04565b145b15610ff857868a8760ff1681518110610fbe577f4e487b7100000000000000000000000000000000000000000000000000000000600052603260045260246000fd5b602002602001019060ff16908160ff1681525050600186610fdf9190612b0a565b955060009650601286610ff29190612bcc565b60ff1691505b808061100390612d7b565b915050610e4c565b5085898660ff1681518110611049577f4e487b7100000000000000000000000000000000000000000000000000000000600052603260045260246000fd5b602002602001019060ff16908160ff1681525050506111ec565b6001846110709190612b0a565b935060006012856110819190612bcc565b60ff16905060005b8760ff168110156111955788818960ff16868888146110a95760006110ac565b60015b60ff166110b99190612ab4565b6110c39190612c07565b6110cd9190612ab4565b81518110611104577f4e487b7100000000000000000000000000000000000000000000000000000000600052603260045260246000fd5b602001015160f81c60f81b8b828461111c9190612ab4565b81518110611153577f4e487b7100000000000000000000000000000000000000000000000000000000600052603260045260246000fd5b60200101907effffffffffffffffffffffffffffffffffffffffffffffffffffffffffffff1916908160001a905350808061118d90612d7b565b915050611089565b5086955085898660ff16815181106111d6577f4e487b7100000000000000000000000000000000000000000000000000000000600052603260045260246000fd5b602002602001019060ff16908160ff1681525050505b5b600095505b5080806111fe90612d7b565b915050610abf565b506060600080600090505b8460ff1681116114c757600060128261122a9190612b72565b905060008a8381518110611267577f4e487b7100000000000000000000000000000000000000000000000000000000600052603260045260246000fd5b602002602001015160ff1611156114b3576001836112859190612b0a565b925060008a83815181106112c2577f4e487b7100000000000000000000000000000000000000000000000000000000600052603260045260246000fd5b602002602001015160ff1667ffffffffffffffff81111561130c577f4e487b7100000000000000000000000000000000000000000000000000000000600052604160045260246000fd5b6040519080825280601f01601f19166020018201604052801561133e5781602001600182028036833780820191505090505b50905060005b8b848151811061137d577f4e487b7100000000000000000000000000000000000000000000000000000000600052603260045260246000fd5b602002602001015160ff16811015611459578c818461139c9190612ab4565b815181106113d3577f4e487b7100000000000000000000000000000000000000000000000000000000600052603260045260246000fd5b602001015160f81c60f81b828281518110611417577f4e487b7100000000000000000000000000000000000000000000000000000000600052603260045260246000fd5b60200101907effffffffffffffffffffffffffffffffffffffffffffffffffffffffffffff1916908160001a905350808061145190612d7b565b915050611344565b50600083141561148c5784816040516020016114769291906126d1565b60405160208183030381529060405294506114b1565b848160405160200161149f929190612697565b60405160208183030381529060405294505b505b5080806114bf90612d7b565b915050611211565b506114ed60238260ff166114db9190612b72565b6102306114e89190612c07565b6116b9565b826040516020016114ff929190612823565b6040516020818303038152906040529950505050505050505050919050565b6000816040516020016115319190612651565b6040516020818303038152906040528051906020012083604051602001611558919061270b565b6040516020818303038152906040528051906020012014905092915050565b60608080611584846116b9565b60405160200161159491906128aa565b6040516020818303038152906040526040516020016115b49291906125e5565b6040516020818303038152906040529050806115d06064611b26565b6040516020016115e1929190612609565b6040516020818303038152906040529050806115fe61028a611b26565b60405160200161160f929190612609565b60405160208183030381529060405290508060405160200161163090612895565b6040516020818303038152906040526040516020016116509291906125e5565b604051602081830303815290604052905080915050919050565b606080808360405160200161167f9190612722565b60405160208183030381529060405260405160200161169f9291906125e5565b604051602081830303815290604052905080915050919050565b60606000821415611701576040518060400160405280600181526020017f30000000000000000000000000000000000000000000000000000000000000008152509050611861565b600082905060005b6000821461173357808061171c90612d7b565b915050600a8261172c9190612b41565b9150611709565b60008167ffffffffffffffff811115611775577f4e487b7100000000000000000000000000000000000000000000000000000000600052604160045260246000fd5b6040519080825280601f01601f1916602001820160405280156117a75781602001600182028036833780820191505090505b5090505b6000851461185a576001826117c09190612c07565b9150600a856117cf9190612e04565b60306117db9190612ab4565b60f81b818381518110611817577f4e487b7100000000000000000000000000000000000000000000000000000000600052603260045260246000fd5b60200101907effffffffffffffffffffffffffffffffffffffffffffffffffffffffffffff1916908160001a905350600a856118539190612b41565b94506117ab565b8093505050505b919050565b606060008290506000815167ffffffffffffffff8111156118b0577f4e487b7100000000000000000000000000000000000000000000000000000000600052604160045260246000fd5b6040519080825280601f01601f1916602001820160405280156118e25781602001600182028036833780820191505090505b50905060005b8251811015611a9857600083828151811061192c577f4e487b7100000000000000000000000000000000000000000000000000000000600052603260045260246000fd5b602001015160f81c60f81b9050606160f81b817effffffffffffffffffffffffffffffffffffffffffffffffffffffffffffff1916101580156119955750607a60f81b817effffffffffffffffffffffffffffffffffffffffffffffffffffffffffffff191611155b15611a1a5760208160f81c6119aa9190612c3b565b60f81b8383815181106119e6577f4e487b7100000000000000000000000000000000000000000000000000000000600052603260045260246000fd5b60200101907effffffffffffffffffffffffffffffffffffffffffffffffffffffffffffff1916908160001a905350611a84565b80838381518110611a54577f4e487b7100000000000000000000000000000000000000000000000000000000600052603260045260246000fd5b60200101907effffffffffffffffffffffffffffffffffffffffffffffffffffffffffffff1916908160001a9053505b508080611a9090612d7b565b9150506118e8565b508092505050919050565b60606000670de0b6b3a764000083611abb9190612b41565b9050600061271082611acd9190612b72565b655af3107a400085611adf9190612b41565b611ae99190612c07565b9050611af4826116b9565b611afd82611d25565b604051602001611b0e929190612668565b60405160208183030381529060405292505050919050565b60608080611b33846116b9565b604051602001611b439190612868565b604051602081830303815290604052604051602001611b639291906125e5565b60405160208183030381529060405290506000805b6023811015611cd9576000805b6004811015611cb55784611b98836116b9565b611bc86000600285611baa9190612e04565b14611bb55786611bc3565b600a87611bc29190612ab4565b5b6116b9565b6000600285611bd79190612e04565b1415611c18576040518060400160405280600181526020017f2d00000000000000000000000000000000000000000000000000000000000000815250611c29565b604051806020016040528060008152505b604051602001611c3b9392919061274f565b604051602081830303815290604052604051602001611c5b9291906125e5565b60405160208183030381529060405294506000600282611c7b9190612e04565b14611c9257602382611c8d9190612ab4565b611ca0565b603782611c9f9190612ab4565b5b91508080611cad90612d7b565b915050611b85565b50602883611cc39190612ab4565b9250508080611cd190612d7b565b915050611b78565b5081604051602001611cea90612895565b604051602081830303815290604052604051602001611d0a9291906125e5565b60405160208183030381529060405291508192505050919050565b60606000600467ffffffffffffffff811115611d6a577f4e487b7100000000000000000000000000000000000000000000000000000000600052604160045260246000fd5b6040519080825280601f01601f191660200182016040528015611d9c5781602001600182028036833780820191505090505b50905060005b6004811015611e5d57600a84611db89190612e04565b6030611dc49190612ab4565b60f81b82826003611dd59190612c07565b81518110611e0c577f4e487b7100000000000000000000000000000000000000000000000000000000600052603260045260246000fd5b60200101907effffffffffffffffffffffffffffffffffffffffffffffffffffffffffffff1916908160001a905350600a84611e489190612b41565b93508080611e5590612d7b565b915050611da2565b5080604051602001611e6f91906125ce565b604051602081830303815290604052915050919050565b6000611e99611e9484612a1c565b6129f7565b905082815260208101848484011115611eb157600080fd5b611ebc848285612cd6565b509392505050565b600082601f830112611ed557600080fd5b8135611ee5848260208601611e86565b91505092915050565b600081359050611efd81613504565b92915050565b600060208284031215611f1557600080fd5b600082013567ffffffffffffffff811115611f2f57600080fd5b611f3b84828501611ec4565b91505092915050565b600080600080600060a08688031215611f5c57600080fd5b6000611f6a88828901611eee565b955050602086013567ffffffffffffffff811115611f8757600080fd5b611f9388828901611ec4565b9450506040611fa488828901611eee565b9350506060611fb588828901611eee565b925050608086013567ffffffffffffffff811115611fd257600080fd5b611fde88828901611ec4565b9150509295509295909350565b611ffc611ff782612c81565b612dd6565b82525050565b61201361200e82612c6f565b612dc4565b82525050565b61202281612c93565b82525050565b600061203382612a77565b61203d8185612a8d565b935061204d818560208601612ce5565b80840191505092915050565b600061206482612a82565b61206e8185612a98565b935061207e818560208601612ce5565b61208781612ef1565b840191505092915050565b600061209d82612a82565b6120a78185612aa9565b93506120b7818560208601612ce5565b80840191505092915050565b600081546120d081612d18565b6120da8186612aa9565b945060018216600081146120f5576001811461210657612139565b60ff19831686528186019350612139565b61210f85612a62565b60005b8381101561213157815481890152600182019150602081019050612112565b838801955050505b50505092915050565b6000815461214f81612d18565b6121598186612aa9565b945060018216600081146121745760018114612185576121b8565b60ff198316865281860193506121b8565b61218e85612a4d565b60005b838110156121b057815481890152600182019150602081019050612191565b838801955050505b50505092915050565b60006121ce601b83612aa9565b91506121d982612f0f565b601b82019050919050565b60006121f1605e83612aa9565b91506121fc82612f38565b605e82019050919050565b6000612214602683612a98565b915061221f82612fad565b604082019050919050565b6000612237600983612aa9565b915061224282612ffc565b600982019050919050565b600061225a601083612a98565b915061226582613025565b602082019050919050565b600061227d600883612aa9565b91506122888261304e565b600882019050919050565b60006122a0604383612aa9565b91506122ab82613077565b604382019050919050565b60006122c3600183612aa9565b91506122ce826130ec565b600182019050919050565b60006122e6602c83612aa9565b91506122f182613115565b602c82019050919050565b6000612309601283612a98565b915061231482613164565b602082019050919050565b600061232c600d83612aa9565b91506123378261318d565b600d82019050919050565b600061234f601b83612aa9565b915061235a826131b6565b601b82019050919050565b6000612372600183612aa9565b915061237d826131df565b600182019050919050565b6000612395602d83612aa9565b91506123a082613208565b602d82019050919050565b60006123b8600883612aa9565b91506123c382613257565b600882019050919050565b60006123db602483612aa9565b91506123e682613280565b602482019050919050565b60006123fe601283612aa9565b9150612409826132cf565b601282019050919050565b6000612421600483612aa9565b915061242c826132f8565b600482019050919050565b6000612444600d83612aa9565b915061244f82613321565b600d82019050919050565b6000612467601583612aa9565b91506124728261334a565b601582019050919050565b600061248a601883612aa9565b915061249582613373565b601882019050919050565b60006124ad603883612aa9565b91506124b88261339c565b603882019050919050565b60006124d0602283612aa9565b91506124db826133eb565b602282019050919050565b60006124f3600f83612aa9565b91506124fe8261343a565b600f82019050919050565b6000612516602583612aa9565b915061252182613463565b602582019050919050565b6000612539601183612a98565b9150612544826134b2565b602082019050919050565b600061255c600483612aa9565b9150612567826134db565b600482019050919050565b61257b81612cbf565b82525050565b61259261258d82612cbf565b612dfa565b82525050565b60006125a48284612002565b60148201915081905092915050565b60006125bf8284611feb565b60148201915081905092915050565b60006125da8284612028565b915081905092915050565b60006125f18285612028565b91506125fd8284612028565b91508190509392505050565b60006126158285612028565b91506126218284612092565b91508190509392505050565b60006126398285612028565b91506126458284612142565b91508190509392505050565b600061265d8284612092565b915081905092915050565b60006126748285612092565b915061267f82612365565b915061268b8284612092565b91508190509392505050565b60006126a38285612092565b91506126ae8261247d565b91506126ba8284612028565b91506126c582612270565b91508190509392505050565b60006126dd8285612092565b91506126e8826124e6565b91506126f48284612028565b91506126ff82612270565b91508190509392505050565b600061271782846120c3565b915081905092915050565b600061272d82612293565b91506127398284612092565b915061274482612270565b915081905092915050565b600061275a82612342565b91506127668286612092565b9150612771826122b6565b915061277d8285612092565b91506127888261222a565b91506127948284612092565b915061279f826122d9565b9150819050949350505050565b60006127b782612388565b91506127c38288612092565b91506127ce826123f1565b91506127da8287612092565b91506127e5826124a0565b91506127f18286612092565b91506127fc826121e4565b91506128088285612092565b91506128148284612092565b91508190509695505050505050565b600061282e826123ab565b915061283a8285612092565b9150612845826121c1565b91506128518284612092565b915061285c8261231f565b91508190509392505050565b6000612873826123ce565b915061287f8284612092565b915061288a826124c3565b915081905092915050565b60006128a082612414565b9150819050919050565b60006128b58261245a565b91506128c18284612092565b91506128cc82612437565b915081905092915050565b60006128e282612509565b91506128ee8284612092565b91506128f98261254f565b915081905092915050565b60006129108284612581565b60208201915081905092915050565b60006020820190506129346000830184612019565b92915050565b600060208201905081810360008301526129548184612059565b905092915050565b6000602082019050818103600083015261297581612207565b9050919050565b600060208201905081810360008301526129958161224d565b9050919050565b600060208201905081810360008301526129b5816122fc565b9050919050565b600060208201905081810360008301526129d58161252c565b9050919050565b60006020820190506129f16000830184612572565b92915050565b6000612a01612a12565b9050612a0d8282612d4a565b919050565b6000604051905090565b600067ffffffffffffffff821115612a3757612a36612ec2565b5b612a4082612ef1565b9050602081019050919050565b60008190508160005260206000209050919050565b60008190508160005260206000209050919050565b600081519050919050565b600081519050919050565b600081905092915050565b600082825260208201905092915050565b600081905092915050565b6000612abf82612cbf565b9150612aca83612cbf565b9250827fffffffffffffffffffffffffffffffffffffffffffffffffffffffffffffffff03821115612aff57612afe612e35565b5b828201905092915050565b6000612b1582612cc9565b9150612b2083612cc9565b92508260ff03821115612b3657612b35612e35565b5b828201905092915050565b6000612b4c82612cbf565b9150612b5783612cbf565b925082612b6757612b66612e64565b5b828204905092915050565b6000612b7d82612cbf565b9150612b8883612cbf565b9250817fffffffffffffffffffffffffffffffffffffffffffffffffffffffffffffffff0483118215151615612bc157612bc0612e35565b5b828202905092915050565b6000612bd782612cc9565b9150612be283612cc9565b92508160ff0483118215151615612bfc57612bfb612e35565b5b828202905092915050565b6000612c1282612cbf565b9150612c1d83612cbf565b925082821015612c3057612c2f612e35565b5b828203905092915050565b6000612c4682612cc9565b9150612c5183612cc9565b925082821015612c6457612c63612e35565b5b828203905092915050565b6000612c7a82612c9f565b9050919050565b6000612c8c82612c9f565b9050919050565b60008115159050919050565b600073ffffffffffffffffffffffffffffffffffffffff82169050919050565b6000819050919050565b600060ff82169050919050565b82818337600083830152505050565b60005b83811015612d03578082015181840152602081019050612ce8565b83811115612d12576000848401525b50505050565b60006002820490506001821680612d3057607f821691505b60208210811415612d4457612d43612e93565b5b50919050565b612d5382612ef1565b810181811067ffffffffffffffff82111715612d7257612d71612ec2565b5b80604052505050565b6000612d8682612cbf565b91507fffffffffffffffffffffffffffffffffffffffffffffffffffffffffffffffff821415612db957612db8612e35565b5b600182019050919050565b6000612dcf82612de8565b9050919050565b6000612de182612de8565b9050919050565b6000612df382612f02565b9050919050565b6000819050919050565b6000612e0f82612cbf565b9150612e1a83612cbf565b925082612e2a57612e29612e64565b5b828206905092915050565b7f4e487b7100000000000000000000000000000000000000000000000000000000600052601160045260246000fd5b7f4e487b7100000000000000000000000000000000000000000000000000000000600052601260045260246000fd5b7f4e487b7100000000000000000000000000000000000000000000000000000000600052602260045260246000fd5b7f4e487b7100000000000000000000000000000000000000000000000000000000600052604160045260246000fd5b6000601f19601f8301169050919050565b60008160601b9050919050565b7f27206f766572666c6f773d2776697369626c65273e3c746578743e0000000000600082015250565b7f222c2261747472696275746573223a5b7b2274726169745f74797065223a224960008201527f6e7661646564222c2276616c7565223a2254727565227d2c7b2274726169745f60208201527f74797065223a22496e697469616c205072696365222c2276616c7565223a0000604082015250565b7f43616e6e6f742068617665206d756c7469706c652073657175656e7469616c2060008201527f7370616365730000000000000000000000000000000000000000000000000000602082015250565b7f2920726f74617465280000000000000000000000000000000000000000000000600082015250565b7f4d65737361676520746f6f206c6f6e6700000000000000000000000000000000600082015250565b7f3c2f747370616e3e000000000000000000000000000000000000000000000000600082015250565b7f3c747370616e20793d273937302720783d2735303027207374796c653d27666f60008201527f6e742d73697a653a20353070783b20666f6e742d7374796c653a206974616c6960208201527f63273e0000000000000000000000000000000000000000000000000000000000604082015250565b7f2c00000000000000000000000000000000000000000000000000000000000000600082015250565b7f3335292720783d2730272077696474683d27353027206865696768743d27323060008201527f272072783d27313027202f3e0000000000000000000000000000000000000000602082015250565b7f496e76616c696420636861726163746572730000000000000000000000000000600082015250565b7f3c2f746578743e3c2f7376673e00000000000000000000000000000000000000600082015250565b7f3c72656374207472616e73666f726d3d277472616e736c617465280000000000600082015250565b7f2e00000000000000000000000000000000000000000000000000000000000000600082015250565b7f646174613a6170706c69636174696f6e2f6a736f6e3b757466382c7b226e616d60008201527f65223a22496e7661646564202300000000000000000000000000000000000000602082015250565b7f3c73766720793d27000000000000000000000000000000000000000000000000600082015250565b7f3c672066696c6c3d276772657927207472616e73666f726d3d277472616e736c60008201527f6174652800000000000000000000000000000000000000000000000000000000602082015250565b7f222c20226465736372697074696f6e223a220000000000000000000000000000600082015250565b7f3c2f673e00000000000000000000000000000000000000000000000000000000600082015250565b7f2c203530302c2035303029273e00000000000000000000000000000000000000600082015250565b7f3c67207472616e73666f726d3d27726f74617465280000000000000000000000600082015250565b7f3c747370616e20783d27353030272064793d2731656d273e0000000000000000600082015250565b7f222c2022637265617465645f6279223a22596f75222c2022696d616765223a2260008201527f646174613a696d6167652f7376672b786d6c3b757466382c0000000000000000602082015250565b7f2c2d3135302927207374796c653d2766696c6c2d6f7061636974793a202e343b60008201527f273e000000000000000000000000000000000000000000000000000000000000602082015250565b7f3c747370616e20783d27353030273e0000000000000000000000000000000000600082015250565b7f7d2c7b2274726169745f74797065223a22436f6d6d756e697479222c2276616c60008201527f7565223a22000000000000000000000000000000000000000000000000000000602082015250565b7f496e76616c696420636861726163746572000000000000000000000000000000600082015250565b7f227d5d7d00000000000000000000000000000000000000000000000000000000600082015250565b61350d81612cbf565b811461351857600080fd5b5056fea26469706673582212206bc36183d94f661f54ac1539e9c55aca1d5776437b7bc3f9b822aee706b70f1164736f6c634300080400332e66207b2077696474683a20313030253b206865696768743a20313030253b207d75726c2827646174613a666f6e742f776f6666323b636861727365743d7574662d383b6261736536342c643039474d674142414141414141694d41413441414141414568414141416732414145414141414141414141414141414141414141414141414141414141414150305a47564530634768344759414343576767454551674b6a6c794c426774434141453241695144534151674259785942324962415139526c484a534d494366436261746776556959446e425958525279444a4534754b6250506544702f2b31317a757a384e2f4f6535752f535571775a5154585535645545727057313959427953706b7a5a4c676a33657a48724a4736704b616b497062774b2b64486e37466c6f5347554e4531733637416d74716632664751334c4e33642f662f58793367694f4967547942715339495932694b4b6d6764347466782f2f3275742f6e2b494a64476d45794b3854765755535373324f36684b6f6d37496d45564e5a736b376c657545544578557949316278715a674654486f58367a3856494141586c383533674d4164386b6c6d774876696c72376741454361415a515172544845414d466d6c336c4a416e30725965426f353164795265532f51457133514571667348742b594265414142672f304f6d686b496f6364372b7a33666d625959417a6744496e336b464b444641684b674e784273576b2b5465624d4d665978796c536d4734784a4f474658313166764e794873785a44455372724343497051554b52524645694d5751794532337346494c4e625877382b2b44614753485041676730776563536a342b636a6567653941506a315036796b545954554a4632564a43756d67306b7439786d2f53396e4338793139706273444b45326a7774516b324e7a2b6f4b70367976612b714b594f61545046366164374231667246666c6e68685872624d557a777567586659466954506c36593358756658374f5138776538305163342f6133585030482f4851754b505049567a794841346535632f634d304d574e586a6c774f335550346d3368315a4851342f45326c384c6a4e2f4358345045504945614868366d2b66726b434e4c396b42442f7a73633279614e7a3878556f4773314a446b4254553932593171533731492b66325561496d4c694e6530727168615a33503565666554585351346779424d696335644b7137774e766d444c5258574d315a5553696a6869484b546e533577646d6b79326f2f704b6e4d5033304d4d514356516a6a68777866794e7646744978375336594e4a396e68594b426530516947797a49533845646e4878625452766568505074367649422b6e476a64374f4174367374644f614945334c30745678636f4a674d64693161644e7262684a4d48646d34397444467934385a4c47772f74584f7437636f4a586b6774352b79396576557478324a785248495a6a42384b30494c493474316d7a352b4b30793376584d57524947794c6c744349716a72446f4b45494543412b5251507337632f673452794a47654d6b5a516b7249354c4445694d686234756a412b486c76416e4c486b4b586a6c7235487a77765059334f50795a306e57796b6d4f367863554f383456436175633173746935695679664f7278633367646c5743707274384b2f74514b39794e6d7a682b4971794e575841462f33743672396e36723967514e375a7a6957744a3246446377674c5075703541457a6865455a4d6d67592f39723862344c793857612f7a4b78724c2f6d66346a736a574a326b556c46377447344a623077557544616244756b68487a71375869346f4775325a59525539654348674846393676577877644970595646654f37422f474a2b55574a68436f545933752f4b36392b34654e33556e436c6e37706e394269583154513174543976784368474d766d793336664f332b326e384c6a5144564a55643864523452744432592b42365247546c2b31635a7542664b5572696c756333355277727a5730727979326f4c413633714c384f6d7964504a6e75375a35424639373377595a306e396d30726261662b2f2f686151564f74493365437a776449526f4a2f4275514d50614f742f3876364370726f57315457666d4a4c55557656584c59797a58585635763348476c727757335133616273575972376e676474424f317851436d787068565634535631344f3355335a7530325a4c454e6d4c2f7a6f764c5550335566627156736a36496746584935592b6d655370346d424b5651764e643134326d535a335730737a73594c3745565a65456c52586e4f4a7662436742647966436d6d7274686568375a2b302f6359755265712b394d35623172527034484b45477068764754486e6c58477163394f4c766d54336463346952387a306f69356a7a37716c36337564546756563571655856685a733063725263703355355333336f65324f5573496f4c616c5346586f366e5568596d39687a795a713645427976796d626f746173567263643248477573497a4d7145704b383346712b76482b332f7a7836764d3731566c4462734649367261556f726130716d5a2b314e5479324b45376f74766a2b3339417147464e6a72365672376471504d4d31476e7a5a31547a4a6271536e6b63637630754f6b3074395a68306b7775754730624e516e70766d6a72765754724166646f646e6d30746651414558325a6c664f2f4a5073334f2b37432b4b6f444250674e4433305a2f444a38586d567647434b666d4a384d3268724177335a686c512f68633246567a37446d306154426476447a6f6a726c54586a48506c6e7132327741344c4c51377a525369666d537643644e3375534f524d71585a4e675443646b5351554a2b4b6e2f3448714c664768684173507071334e376d50507172383948374d5849546532546e30506b305277454978714b4b436b474742517a453444693745674a416c73693366364331526d7739525175566f34535051464c5255434c686b766a4c34432b4a6b2f5a436a474f38416f5942536867574141564377486759414b42566a4955522b553831453054684a796a6b414a454a6363714957396541784c7938424b6d69576b46466c7a6f4154704f3641356c712f5148546f39654431377976475148524d75346130526c7746424349306c31514767346968795348574d643444496d4c3669425635672b6f6d466d39774f6c65467944547274364157646742764c35396d4965506677516c4449786f4a686f71616952554e4a6b597147534a6b6952434e57706e306b35477a59796b734a6e65554252706a54484b475968524d634767794c7549646a357144684551564c43353471424f436e49597544666354466e4d6f6c56703734544f4d72575a564779503330346e31646a5759436f5474674f7971437156654c354d397757597231777044623036426e6f4758485547586178687067507a7a365561665a3142622b41656d504a6545486b456745304d644441364e4b58715542494257306b3741753359726b5a4b5848497a5337683065574b4d546f43455570513676456e4a314f6e34496f4a4778646d5946435a707373436d7577375430664d4f4a6e48784d654d6466617052795a56723946796451572f41727165314a365873304a444a324a57335671535930724b634d39742b7342795757716f724b676b6d6b667a314f56366a4c7230306b79344f5a3434396174597a52556b616d694d4b343052544f78547042553179436a7276324a6b4f4b41506c344e5049354a73653162384a3152426f2b305a5730676255342f37305334503638306f4342695a616368534e75664e416f58354646346f576b6d5752774d687669504264314f4a6741374e57765946412b56667462576a62536a504152486d795035696f4d35666b41497253386278535665716863416f57704777796559737956484f4e6a6442336a4e467432536d4b514575723667384a5664786f4d6e7845526752685130655355625945636b616853776f737a5a733058506768656d557049716e2f552b5143684c594e36354f6b4375456952496f534c5561734f5047344d416d6836463254705569564a6c324754466d793563695642773d3d272920666f726d61742827776f66663227293b2e61207b20616e696d6174696f6e3a206f20327320656173652d6f757420666f7277617264733b207d666f6e742d7765696768743a203530303b20666f6e742d7374796c653a206e6f726d616c3b20666f6e742d646973706c61793a20737761703b7d406b65796672616d6573206f207b20313025207b206f7061636974793a20313b207d2031303025207b206f7061636974793a20303b207d207d3c7374796c653e40666f6e742d66616365207b666f6e742d66616d696c793a202743273b7372633a20747370616e207b2066696c6c3a206c69676874677261793b20666f6e742d66616d696c793a202743273b20666f6e742d73697a653a20373070783b20746578742d7472616e73666f726d3a207570706572636173653b20746578742d616e63686f723a206d6964646c653b207d3c73766720786d6c6e733d27687474703a2f2f7777772e77332e6f72672f323030302f737667272077696474683d273130303027206865696768743d2731303030272076696577426f783d2730203020313030302031303030273e3c747370616e20793d2738352720783d27313530273e2532336e6f7761723c2f747370616e3e3c747370616e20793d2738352720783d27373430273e25323366726565756b7261696e653c2f747370616e3e3c2f746578743e3c2f7376673e3c7265637420636c6173733d27622066206127202f3e",
  "linkReferences": {},
  "deployedLinkReferences": {}
}